:020000040800F2
:1000000078F0002081530408712D0408732D040832
:10001000752D0408772D0408792D040800000000D0
:100020000000000000000000000000009D360308F2
:100030007B2D040800000000413603087D2D0408D4
:10004000B9590408BD590408C1590408C559040820
:10005000C9590408CD590408D1590408D5590408D0
:10006000D9590408DD590408E1590408E559040880
:10007000E9590408ED590408F1590408F559040830
:10008000F9590408FD590408015A0408055A0408DE
:10009000095A04080D5A0408115A0408155A04088C
:1000A000195A040811BF03081D5A0408215A0408EC
:1000B000255A0408295A04082D5A0408315A0408FC
:1000C000355A0408395A04083D5A0408415A0408AC
:1000D000455A0408495A04084D5A0408515A04085C
:1000E000555A0408595A04085D5A0408615A04080C
:1000F000655A0408695A04086D5A0408715A0408BC
:10010000755A0408795A04087D5A0408815A04086B
:10011000855A0408895A04088D5A0408915A04081B
:10012000912D0408955A0408995A04089D5A040808
:10013000A15A04089B2D0408A55A0408A95A0408CA
:10014000AD5A0408B15A0408B55A0408B95A04084B
:10015000BD5A0408C15A0408C55A0408C95A0408FB
:10016000CD5A0408D15A0408D55A0408D95A0408AB
:10017000DD5A0408E15A0408E55A040800000000AA
:10018000E95A0408ED5A0408F15A0408F55A04081B
:10019000F95A0408FD5A0408015B0408055B0408C9
:1001A0000000000000000000095B04080D5B04086B
:1001B000115B0408155B0408195B04081D5B040847
:1001C000215B0408255B04082F6D61696E5F636F16
:1001D0006E662E7368746D6C0000000048545450B5
:1001E0002F312E3020323030204F4B0D0A536572A4
:1001F0007665723A206C7749502F312E332E31209C
:1002000028687474703A2F2F736176616E6E61681E
:100210002E6E6F6E676E752E6F72672F70726F6ABB
:10022000656374732F6C776970290D0A436F6E7460
:10023000656E742D747970653A20746578742F68D2
:10024000746D6C0D0A457870697265733A20467258
:10025000692C20313020417072203230303820310A
:10026000343A30303A303020474D540D0A507261E4
:10027000676D613A206E6F2D63616368650D0A0DCD
:100280000AEFBBBF3C21444F43545950452068748A
:100290006D6C205055424C494320222D2F2F57334F
:1002A000432F2F4454442048544D4C20342E303199
:1002B000205472616E736974696F6E616C2F2F4583
:1002C0004E223E0D0A3C68746D6C3E0D0A202020C3
:1002D000203C686561643E0D0A20202020202020FB
:1002E000203C6D65746120636861727365743D22A2
:1002F0007574662D3822202F3E0D0A2020202020E4
:100300002020203C6D657461206E616D653D227614
:10031000696577706F72742220636F6E74656E7496
:100320003D2277696474683D6465766963652D77FD
:100330006964746822202F3E0D0A2020202020208E
:1003400020203C7469746C653ED09CD0A32D303164
:100350003C2F7469746C653E0D0A202020202020FB
:1003600020203C7374796C653E0D0A2020202020EB
:10037000202020202020202F2AD0BED0B1D0BDD1D7
:1003800083D0BBD0B5D0BDD0B5D0BDD0B8D0B5200E
:10039000D181D182D0B8D0BBD0B5D0B92A2F0D0A27
:1003A0000D0A2020202020202020202020202A206C
:1003B0007B0D0A202020202020202020202020200B
:1003C00020202070616464696E673A20303B0D0A1A
:1003D000202020202020202020202020202020201D
:1003E0006D617267696E3A20303B0D0A2020202033
:1003F000202020202020202020202020626F7264D6
:1004000065723A20303B0D0A202020202020202039
:10041000202020207D0D0A0D0A20202020202020D1
:1004200020202020202A2C0D0A20202020202020DF
:1004300020202020202A3A6265666F72652C0D0A02
:100440002020202020202020202020202A3A616601
:10045000746572207B0D0A2020202020202020207F
:10046000202020202020202D6D6F7A2D626F782D86
:1004700073697A696E673A20626F726465722D6281
:100480006F783B0D0A2020202020202020202020D3
:1004900020202020202D7765626B69742D626F7893
:1004A0002D73697A696E673A20626F726465722D86
:1004B000626F783B0D0A2020202020202020202061
:1004C000202020202020626F782D73697A696E6762
:1004D0003A20626F726465722D626F783B0D0A205C
:1004E00020202020202020202020207D0D0A0D0A01
:1004F0002020202020202020202020203A666F630A
:1005000075732C0D0A202020202020202020202060
:10051000203A616374697665207B0D0A20202020D3
:100520002020202020202020202020206F75746C87
:10053000696E653A206E6F6E653B0D0A20202020A3
:1005400020202020202020207D0D0A0D0A202020A0
:10055000202020202020202020613A666F637573C0
:100560002C0D0A2020202020202020202020206167
:100570003A616374697665207B0D0A202020202073
:1005800020202020202020202020206F75746C69DE
:100590006E653A206E6F6E653B0D0A20202020208C
:1005A000202020202020207D0D0A0D0A2020202040
:1005B00020202020202020206E61762C0D0A202073
:1005C00020202020202020202020666F6F7465725C
:1005D0002C0D0A20202020202020202020202068F0
:1005E00065616465722C0D0A2020202020202020C7
:1005F000202020206173696465207B0D0A20202063
:10060000202020202020202020202020206469730A
:10061000706C61793A20626C6F636B3B0D0A20202D
:10062000202020202020202020207D0D0A0D0A20BF
:10063000202020202020202020202068746D6C2C79
:100640000D0A202020202020202020202020626F42
:100650006479207B0D0A20202020202020202020CB
:100660002020202020206865696768743A20313096
:1006700030253B0D0A202020202020202020202073
:10068000202020202077696474683A20313030259A
:100690003B0D0A2020202020202020202020202068
:1006A000202020666F6E742D7374796C653A20314A
:1006B0003030253B0D0A2020202020202020202023
:1006C0002020202020206C696E652D686569676890
:1006D000743A20313B0D0A202020202020202020A9
:1006E00020202020202020666F6E742D7374796C7A
:1006F000653A20313670783B0D0A202020202020DA
:10070000202020202020202020202D6D732D746596
:1007100078742D73697A652D61646A7573743A20F3
:10072000313030253B0D0A202020202020202020A1
:10073000202020202020202D6D6F7A2D7465787464
:100740002D73697A652D61646A7573743A2031304E
:1007500030253B0D0A202020202020202020202092
:1007600020202020202D7765626B69742D746578B8
:10077000742D73697A652D61646A7573743A2031DA
:100780003030253B0D0A2020202020202020202052
:1007900020207D0D0A0D0A2020202020202020204E
:1007A000202020696E7075742C0D0A2020202020D6
:1007B00020202020202020627574746F6E2C0D0A7A
:1007C00020202020202020202020202074657874E4
:1007D00061726561207B0D0A2020202020202020CE
:1007E0002020202020202020666F6E742D66616DF1
:1007F000696C793A20696E68657269743B0D0A20EC
:1008000020202020202020202020207D0D0A0D0ADD
:10081000202020202020202020202020696E70759C
:10082000743A3A2D6D732D636C656172207B0D0AED
:1008300020202020202020202020202020202020B8
:10084000646973706C61793A206E6F6E653B0D0A56
:100850002020202020202020202020207D0D0A0D77
:100860000A202020202020202020202020627574B3
:10087000746F6E207B0D0A20202020202020202055
:1008800020202020202020637572736F723A207020
:100890006F696E7465723B0D0A2020202020202095
:1008A00020202020207D0D0A0D0A2020202020203D
:1008B000202020202020627574746F6E3A3A2D6DCE
:1008C0006F7A2D666F6375732D696E6E6572207B0E
:1008D0000D0A202020202020202020202020202041
:1008E000202070616464696E673A20303B0D0A20F5
:1008F00020202020202020202020202020202062B6
:100900006F726465723A20303B0D0A20202020204F
:10091000202020202020207D0D0A0D0A20202020CC
:100920002020202020202020612C0D0A20202020A3
:100930002020202020202020613A76697369746588
:1009400064207B0D0A202020202020202020202031
:100950002020202020746578742D6465636F726197
:1009600074696F6E3A206E6F6E653B0D0A20202011
:100970002020202020202020207D0D0A0D0A20206C
:1009800020202020202020202020613A686F7665DA
:1009900072207B0D0A2020202020202020202020D3
:1009A0002020202020746578742D6465636F726147
:1009B00074696F6E3A206E6F6E653B0D0A202020C1
:1009C0002020202020202020207D0D0A0D0A20201C
:1009D00020202020202020202020756C206C6920E1
:1009E0007B0D0A20202020202020202020202020D5
:1009F0002020206C6973742D7374796C652D747963
:100A000070653A206E6F6E653B0D0A202020202015
:100A1000202020202020207D0D0A0D0A20202020CB
:100A20002020202020202020696D67207B0D0A20B7
:100A30002020202020202020202020202020207660
:100A40006572746963616C2D616C69676E3A2074BC
:100A50006F703B0D0A202020202020202020202005
:100A6000207D0D0A0D0A202020202020202020207B
:100A7000202068312C0D0A2020202020202020203A
:100A800020202068322C0D0A202020202020202029
:100A90002020202068332C0D0A2020202020202018
:100AA000202020202068342C0D0A20202020202007
:100AB00020202020202068352C0D0A2020202020F6
:100AC000202020202020206836207B0D0A20202096
:100AD00020202020202020202020202020666F6E33
:100AE000742D7374796C653A20696E6865726974E7
:100AF0003B0D0A2020202020202020202020202004
:100B0000202020666F6E742D7765696768743A20BF
:100B10003430303B0D0A20202020202020202020AF
:100B200020207D0D0A0D0A202020202020202020BA
:100B30002020206872207B0D0A20202020202020E9
:100B4000202020202020202020626F726465723ACD
:100B5000206E6F6E653B0D0A202020202020202073
:100B600020202020202020206261636B67726F7537
:100B70006E642D636F6C6F723A2023366236653770
:100B8000303B0D0A20202020202020202020202063
:100B9000202020206865696768743A203170783BAE
:100BA0000D0A20202020202020202020202020206E
:100BB00020206D617267696E3A20313B0D0A20205A
:100BC000202020202020202020207D0D0A0D0A201A
:100BD00020202020202020202020202E77726170CD
:100BE000706572207B0D0A202020202020202020EC
:100BF000202020202020206D696E2D68656967689F
:100C0000743A20313030253B0D0A2020202020204E
:100C1000202020202020202020206F766572666C06
:100C20006F773A2068696464656E3B0D0A20202066
:100C300020202020202020202020202020626163EE
:100C40006B67726F756E642D636F6C6F723A207292
:100C500067622835312C2035312C203631293B0D67
:100C60000A2020202020202020202020202020209A
:100C700020646973706C61793A20666C65783B0D0D
:100C80000A2020202020202020202020202020207A
:100C900020666C65782D646972656374696F6E3A5D
:100CA00020636F6C756D6E3B0D0A20202020202084
:100CB00020202020202020202020666F6E742D66AA
:100CC000616D696C793A20274672616E6B6C696E52
:100CD00020476F7468696320426F6F6B272C202751
:100CE000417269616C204E6172726F77272C2041CE
:100CF0007269616C2C0D0A202020202020202020E9
:100D0000202020202020202020202073616E732DA1
:100D100073657269663B0D0A202020202020202068
:100D20002020202020202020666F6E742D7765699A
:100D30006768743A206E6F726D616C3B0D0A2020FB
:100D40002020202020202020202020202020666F0E
:100D50006E742D73697A653A20313270783B0D0AD2
:100D60002020202020202020202020202020202083
:100D7000636F6C6F723A206C69676874677261792F
:100D80003B0D0A2020202020202020202020207D14
:100D90000D0A2020202020202020202020202F2A63
:100DA000D0B7D0B0D0B3D0BED182D0BED0B2D0BA3E
:100DB000D0B020D0BFD0BED0B420D0B0D0B4D0B04E
:100DC000D0BFD182D0B8D0B2D0BDD183D18E20D007
:100DD000B2D0B5D180D181D182D0BAD1832A2F0DA2
:100DE0000A2020202020202020202020202E636F79
:100DF0006E7461696E6572207B0D0A2020202020B0
:100E000020202020202020202020206D61782D7798
:100E1000696474683A203132303070783B0D0A20B2
:100E20002020202020202020202020202020206D75
:100E3000617267696E3A2030206175746F3B0D0AEC
:100E40002020202020202020202020207D0D0A0D81
:100E50000A202020202020202020202020406D65F6
:100E600064696120286D61782D77696474683A201F
:100E700031323030707829207B0D0A20202020204C
:100E800020202020202020202020202E636F6E7420
:100E900061696E6572207B0D0A20202020202020B1
:100EA000202020202020202020202020206D61785C
:100EB0002D77696474683A2039373070783B0D0AB1
:100EC0002020202020202020202020202020202022
:100ED0007D0D0A2020202020202020202020207D81
:100EE0000D0A202020202020202020202020406DBE
:100EF0006564696120286D61782D77696474683A4A
:100F000020393932707829207B0D0A2020202020BA
:100F100020202020202020202020202E636F6E748F
:100F200061696E6572207B0D0A2020202020202020
:100F3000202020202020202020202020206D6178CB
:100F40002D77696474683A2037353070783B0D0A24
:100F50002020202020202020202020202020202091
:100F60007D0D0A2020202020202020202020207DF0
:100F70000D0A202020202020202020202020406D2D
:100F80006564696120286D61782D77696474683AB9
:100F900020373637707829207B0D0A20202020202A
:100FA00020202020202020202020202E636F6E74FF
:100FB00061696E6572207B0D0A2020202020202090
:100FC000202020202020202020202020206D61783B
:100FD0002D77696474683A206E6F6E653B0D0A2048
:100FE0002020202020202020202020202020207DA4
:100FF0000D0A2020202020202020202020207D0DD0
:101000000A0D0A2020202020202020202020202E11
:10101000636F6E74656E74207B0D0A202020202083
:101020002020202020202020202020666C65783A77
:101030002031203120313030253B0D0A2020202066
:10104000202020202020202020202020636F6C6F73
:10105000723A206C69676874677261793B0D0A2087
:1010600020202020202020202020207D0D0A0D0A75
:101070002020202020202020202020202E68656194
:10108000646572207B0D0A20202020202020202053
:10109000202020202020206261636B67726F756EB4
:1010A000642D636F6C6F723A207267622836362C3B
:1010B0002036362C203830293B0D0A2020202020D5
:1010C00020202020202020202020207061646469BE
:1010D0006E673A203130707820303B0D0A20202096
:1010E000202020202020202020202020206865692A
:1010F0006768743A2035253B0D0A202020202020E7
:101100002020202020207D0D0A0D0A2020202020D4
:10111000202020202020202E6865616465725F5F9A
:10112000726F77207B0D0A20202020202020202095
:1011300020202020202020646973706C61793A207F
:10114000666C65783B0D0A2020202020202020207E
:101150002020207D0D0A0D0A202020202020202084
:10116000202020202E6865616465725F5F6275745F
:10117000746F6E73207B0D0A2020202020202020F9
:101180002020202020202020666C65783A20312005
:10119000312033332E333333253B0D0A20202020DA
:1011A0002020202020202020202020202F2A686599
:1011B000696768743A20313030253B2A2F0D0A20A8
:1011C00020202020202020202020207D0D0A0D0A14
:1011D0002020202020202020202020202E68656133
:1011E0006465725F5F627574746F6E7320666F7290
:1011F0006D207B0D0A202020202020202020202070
:1012000020202020206D617267696E2D6C656674E8
:101210003A203370783B0D0A202020202020202007
:1012200020202020202020206D617267696E2D72A1
:10123000696768743A203370783B0D0A20202020BB
:1012400020202020202020207D0D0A0D0A20202093
:101250002020202020202020202E686561646572D7
:101260005F5F627574746F6E7320627574746F6EF5
:10127000207B0D0A2020202020202020202020203C
:101280002020202077696474683A20313030253B73
:101290000D0A202020202020202020202020202077
:1012A0002020626F726465722D7261646975733A91
:1012B000203370783B0D0A20202020202020202081
:1012C0002020202020202070616464696E672D74C6
:1012D0006F703A203570783B0D0A202020202020A6
:1012E0002020202020202020202070616464696E4E
:1012F000672D626F74746F6D3A203570783B0D0AFC
:1013000020202020202020202020202020202020DD
:101310006261636B67726F756E642D636F6C6F7261
:101320003A20233862633334613B0D0A20202020A9
:10133000202020202020202020202020636F6C6F80
:10134000723A207267622835312C2035312C2036D4
:1013500031293B0D0A202020202020202020202081
:101360002020202020666F6E742D73697A653A20E4
:10137000312E3172656D3B0D0A2020202020202067
:10138000202020202020202020666F6E742D77657D
:10139000696768743A20626F6C643B0D0A202020F4
:1013A00020202020202020202020202020626F7854
:1013B0002D736861646F773A203020357078203063
:1013C000707820233232323632393B0D0A20202009
:1013D0002020202020202020202020202074726126
:1013E0006E736974696F6E2D6475726174696F6E66
:1013F0003A203530306D733B0D0A2020202020200C
:101400002020202020207D0D0A0D0A2020202020D1
:10141000202020202020202E6865616465725F5F97
:10142000627574746F6E7320627574746F6E3A684F
:101430006F766572207B0D0A20202020202020203E
:1014400020202020202020202F2A626F782D7368F2
:1014500061646F773A2030707820357078203130B1
:1014600070782030707820233232323632393B2A7D
:101470002F0D0A2020202020202020202020202086
:10148000202020746F703A203270783B0D0A2020A3
:101490002020202020202020202020202020626FBB
:1014A000782D736861646F773A203020337078202C
:1014B00030707820233232323632393B0D0A202008
:1014C0002020202020202020202020202020626199
:1014D000636B67726F756E642D636F6C6F723A2009
:1014E000233631383932663B0D0A20202020202057
:1014F00020202020202020202020636F6C6F723A53
:1015000020233232323632393B0D0A20202020206F
:10151000202020202020207D0D0A20202020202097
:101520002020202020202E6865616465725F5F6244
:101530007574746F6E7320627574746F6E2E686547
:10154000616465725F5F616374697665207B0D0A13
:10155000202020202020202020202020202020208B
:101560006261636B67726F756E642D636F6C6F720F
:101570003A20233631383932663B0D0A20202020AC
:1015800020202020202020207D0D0A202020202027
:10159000202020202020202E6865616465725F5F16
:1015A000627574746F6E7320627574746F6E2E68DA
:1015B00065616465725F5F6163746976653A686FDF
:1015C000766572207B0D0A202020202020202020FC
:1015D000202020202020202F2A626F782D73686120
:1015E000646F773A20307078203570782031307011
:1015F000782030707820233232323632393B2A2F2D
:101600000D0A202020202020202020202020202003
:101610002020746F703A203270783B0D0A20202011
:1016200020202020202020202020202020626F78D1
:101630002D736861646F773A2030203370782030E2
:10164000707820233232323632393B0D0A20202086
:1016500020202020202020202020202020626163C4
:101660006B67726F756E642D636F6C6F723A2023B7
:101670003362353331643B0D0A20202020202020A6
:10168000202020202020202020636F6C6F723A20C1
:10169000233232323632393B0D0A202020202020DE
:1016A0002020202020207D0D0A0D0A20202020202F
:1016B000202020202020202E636F6E74656E745FC2
:1016C0005F726F77207B0D0A2020202020202020B1
:1016D0002020202020202020646973706C61793ADA
:1016E00020666C65783B0D0A2020202020202020D9
:1016F0002020202020202020666C65782D646972CF
:10170000656374696F6E3A20636F6C756D6E3B0D27
:101710000A202020202020202020202020202020DF
:10172000206865696768743A20313030253B0D0ABE
:101730002020202020202020202020207D0D0A0D88
:101740000A2020202020202020202020202E64611C
:101750007461207B0D0A20202020202020202020C2
:1017600020202020202070616464696E672D6C65E4
:1017700066743A20313070783B0D0A2020202020FA
:10178000202020202020207D0D0A0D0A202020204E
:1017900020202020202020202E64617461206832C7
:1017A000207B0D0A20202020202020202020202007
:1017B0002020202070616464696E673A20313070A7
:1017C0007820302031307078203570783B0D0A2039
:1017D00020202020202020202020202020202066C3
:1017E0006F6E742D7765696768743A20626F6C64F8
:1017F0003B0D0A20202020202020202020202020F7
:10180000202020666F6E742D73697A653A20312E20
:101810003172656D3B0D0A202020202020202020E1
:101820002020207D0D0A0D0A2020202020202020AD
:10183000202020202E64617461207472207B0D0AA8
:101840002020202020202020202020202020202098
:10185000636F6C6F723A206C696768746772617944
:101860003B0D0A2020202020202020202020202086
:10187000202020626F726465722D626F74746F6DC8
:101880003A20736F6C696420327078207267622826
:1018900036362C2036362C203830293B0D0A2020B5
:1018A000202020202020202020207D0D0A0D0A202D
:1018B00020202020202020202020202E6461746100
:1018C000207464207B0D0A2020202020202020204E
:1018D0002020202020202070616464696E673A20F7
:1018E00035707820313070783B0D0A202020202080
:1018F0002020202020202020202020746578742D96
:10190000616C69676E3A206C6566743B0D0A202035
:10191000202020202020202020207D0D0A0D0A20BC
:1019200020202020202020202020202E7376672DAC
:10193000636F6E7461696E6572207B0D0A202020D2
:101940002020202020202020202020202066696CBC
:101950006C3A20233862633334613B0D0A20202027
:1019600020202020202020202020202020666C6F96
:1019700061743A2072696768743B0D0A2020202048
:10198000202020202020202020202020626F726430
:1019900065723A203070783B0D0A202020202020EC
:1019A000202020202020202020206261636B67728D
:1019B0006F756E642D636F6C6F723A207267622868
:1019C00035312C2035312C203631293B0D0A202091
:1019D000202020202020202020207D0D0A0D0A20FC
:1019E00020202020202020202020202E7376672DEC
:1019F000636F6E7461696E65723A686F76657220A6
:101A00007376672070617468207B0D0A2020202087
:101A100020202020202020202020202066696C6C9F
:101A20003A20233631383932663B0D0A20202020F7
:101A300020202020202020207D0D0A0D0A2020209B
:101A40002020202020202020202E636F6E74726FB3
:101A50006C207B0D0A202020202020202020202008
:101A6000207D0D0A0D0A202020202020202020206B
:101A700020202E636F6E74726F6C2074626F6479B5
:101A8000207B0D0A20202020202020202020202024
:101A900020202020636F6C6F723A206C6967687435
:101AA000677261793B0D0A20202020202020202011
:101AB0002020207D0D0A0D0A20202020202020201B
:101AC000202020202E636F6E74726F6C206832208D
:101AD0007B0D0A20202020202020202020202020D4
:101AE00020202070616464696E673A20313070781C
:101AF00020302031307078203570783B0D0A20205E
:101B00002020202020202020202020202020666F40
:101B10006E742D7765696768743A20626F6C643BF8
:101B20000D0A2020202020202020202020202020DE
:101B30002020666F6E742D73697A653A20312E31DC
:101B400072656D3B0D0A20202020202020202020BF
:101B500020207D0D0A0D0A2020202020202020207A
:101B60002020202E636F6E74726F6C5F5F726F77D0
:101B7000207B0D0A20202020202020202020202033
:101B800020202020646973706C61793A20666C654E
:101B9000783B0D0A202020202020202020202020FB
:101BA0007D0D0A0D0A20202020202020202020202A
:101BB000202E636F6E74726F6C5F5F627574746FEA
:101BC0006E73207B0D0A2020202020202020202042
:101BD000202020202020666C65783A20312031209A
:101BE00033302E333333253B0D0A20202020202094
:101BF000202020202020202020202F2A68656967AF
:101C000068743A20313030253B2A2F0D0A202020DD
:101C10002020202020202020207D0D0A0D0A2020B9
:101C2000202020202020202020202E636F6E747220
:101C30006F6C5F5F627574746F6E7320666F726D28
:101C4000207B0D0A20202020202020202020202062
:101C5000202020206D617267696E3A203370783BD6
:101C60000D0A2020202020202020202020207D0D53
:101C70000A0D0A2020202020202020202020202E95
:101C8000636F6E74726F6C5F5F627574746F6E7386
:101C900020627574746F6E207B0D0A202020202036
:101CA00020202020202020202020207769647468B4
:101CB0003A20313030253B0D0A20202020202020E2
:101CC000202020202020202020626F726465722D49
:101CD0007261646975733A203370783B0D0A202075
:101CE0002020202020202020202020202020706163
:101CF0006464696E672D746F703A203570783B0D9F
:101D00000A202020202020202020202020202020E9
:101D10002070616464696E672D626F74746F6D3AD0
:101D2000203570783B0D0A20202020202020202004
:101D3000202020202020206261636B67726F756E07
:101D4000642D636F6C6F723A2023386263333461A1
:101D50003B0D0A2020202020202020202020202091
:101D6000202020636F6C6F723A20726762283531D1
:101D70002C2035312C203631293B0D0A2020202003
:101D8000202020202020202020202020666F6E741C
:101D90002D73697A653A203172656D3B0D0A2020FA
:101DA0002020202020202020202020202020666F9E
:101DB0006E742D7765696768743A20626F6C643B56
:101DC0000D0A20202020202020202020202020203C
:101DD0002020626F782D736861646F773A2030201D
:101DE0003570782030707820233232323632393BE9
:101DF0000D0A20202020202020202020202020200C
:101E000020207472616E736974696F6E2D647572CF
:101E10006174696F6E3A203530306D733B0D0A2066
:101E200020202020202020202020207D0D0A0D0AA7
:101E30002020202020202020202020202E636F6EB4
:101E400074726F6C5F5F627574746F6E732062750D
:101E500074746F6E3A686F766572207B0D0A20206D
:101E60002020202020202020202020202020746FCF
:101E7000703A203270783B0D0A202020202020204C
:101E8000202020202020202020626F782D73686180
:101E9000646F773A203020337078203070782023B8
:101EA0003232323632393B0D0A20202020202020C9
:101EB0002020202020202020206261636B67726F29
:101EC000756E642D636F6C6F723A2023363138392A
:101ED00032663B0D0A2020202020202020202020B8
:101EE0002020202020636F6C6F723A202332323220
:101EF0003632393B0D0A20202020202020202020AF
:101F000020207D0D0A0D0A202020202020202020C6
:101F100020202023627574746F6E5F5F73746F701E
:101F2000207B0D0A2020202020202020202020207F
:101F3000202020206261636B67726F756E642D6371
:101F40006F6C6F723A20236433326632663B0D0A3F
:101F50002020202020202020202020207D0D0A0D60
:101F60000A202020202020202020202020236275ED
:101F700074746F6E5F5F73746F703A686F766572BA
:101F8000207B0D0A2020202020202020202020201F
:101F9000202020206261636B67726F756E642D6311
:101FA0006F6C6F723A20233866323132313B0D0A42
:101FB0002020202020202020202020207D0D0A0D00
:101FC0000A2020202020202020202020202E706188
:101FD00072616D207B0D0A202020202020202020EF
:101FE0002020207D0D0A0D0A2020202020202020E6
:101FF000202020202E706172616D207472207B0D74
:102000000A2020202020202020202020207D0D0AB2
:102010002020202020202020202020202E706172CF
:10202000616D206832207B0D0A2020202020202096
:1020300020202020202020202070616464696E67A9
:102040003A2031307078203020313070782035706F
:10205000783B0D0A20202020202020202020202036
:1020600020202020666F6E742D7765696768743A4A
:1020700020626F6C643B0D0A20202020202020204D
:102080002020202020202020666F6E742D73697A16
:10209000653A20312E3172656D3B0D0A20202020DB
:1020A00020202020202020207D0D0A0D0A20202025
:1020B0002020202020202020202E706172616D20A1
:1020C0007464207B0D0A2020202020202020202046
:1020D00020202020202077696474683A203330253E
:1020E0003B0D0A20202020202020202020202020FE
:1020F00020202070616464696E673A203570783BF7
:102100000D0A2020202020202020202020202020F8
:102110002020746578742D616C69676E3A2072694D
:102120006768743B0D0A20202020202020202020DA
:1021300020207D0D0A0D0A20202020202020202094
:102140002020202E706172616D2074642070207BCD
:102150000D0A2020202020202020202020202020A8
:102160002020746578742D616C69676E3A206C6507
:1021700066743B0D0A2020202020202020202020D3
:102180002020202020636F6C6F723A206C69676892
:1021900074677261793B0D0A2020202020202020C6
:1021A000202020207D0D0A0D0A2020202020202024
:1021B00020202020202E706172616D2073656C6577
:1021C0006374207B0D0A2020202020202020202046
:1021D000202020202020626F726465723A2023380C
:1021E000626333346120736F6C6964203170783BB3
:1021F0000D0A202020202020202020202020202008
:102200002020626F726465722D7261646975733A21
:10221000203370783B0D0A20202020202020202011
:1022200020202020202020636F6C6F723A206C6980
:10223000676874677261793B0D0A20202020202096
:10224000202020202020202020206261636B6772E4
:102250006F756E642D636F6C6F723A20233231326A
:102260003132313B0D0A2020202020202020202048
:1022700020202020202070616464696E673A203538
:1022800070783B0D0A2020202020202020202020B4
:1022900020202020206D617267696E2D7269676849
:1022A000743A203570783B0D0A2020202020202011
:1022B00020202020202020202077696474683A2084
:1022C000313030253B0D0A202020202020202020E6
:1022D00020202020202020637572736F723A2070B6
:1022E0006F696E7465723B0D0A202020202020202B
:1022F0002020202020202020207472616E736974B9
:10230000696F6E2D6475726174696F6E3A20353035
:10231000306D733B0D0A202020202020202020201B
:1023200020207D0D0A202020202020202020202079
:10233000202E706172616D2073656C6563743A68FC
:102340006F766572207B0D0A20202020202020201F
:102350002020202020202020626F726465723A20A5
:102360002336313839326620736F6C6964203170DE
:10237000783B0D0A20202020202020202020202013
:10238000202020206261636B67726F756E642D631D
:102390006F6C6F723A20233262326232623B0D0AF6
:1023A000202020202020202020202020202020202D
:1023B000626F782D736861646F773A2030203570D2
:1023C000782030707820233232323632393B0D0A91
:1023D0002020202020202020202020207D0D0A0DDC
:1023E0000A2020202020202020202020202E706164
:1023F00072616D206F7074696F6E3A686F76657286
:102400002C0D0A2020202020202020202020202EDB
:10241000706172616D206F7074696F6E3A63686588
:10242000636B6564207B0D0A202020202020202063
:1024300020202020202020206261636B67726F754E
:102440006E642D636F6C6F723A20233631383932E7
:10245000663B0D0A20202020202020202020202044
:102460007D0D0A0D0A202020202020202020202061
:10247000202E706172616D20696E707574207B0D05
:102480000A20202020202020202020202020202062
:102490002077696474683A20313030253B0D0A207A
:1024A00020202020202020202020202020202070DC
:1024B000616464696E673A203570783B0D0A2020AC
:1024C0002020202020202020202020202020626F7B
:1024D000726465723A202338626333346120736F0B
:1024E0006C6964203170783B0D0A20202020202068
:1024F00020202020202020202020636F6C6F723A43
:10250000206C69676874677261793B0D0A2020202E
:1025100020202020202020202020202020626F72D8
:102520006465722D7261646975733A203370783B0B
:102530000D0A2020202020202020202020202020C4
:1025400020206261636B67726F756E642D636F6CC0
:102550006F723A20233231323132313B0D0A202062
:1025600020202020202020202020202020207472C5
:10257000616E736974696F6E2D6475726174696FD1
:102580006E3A203530306D733B0D0A20202020201C
:10259000202020202020207D0D0A0D0A2020202030
:1025A00020202020202020202E706172616D206963
:1025B0006E7075743A686F766572207B0D0A202004
:1025C0002020202020202020202020202020626F7A
:1025D000726465723A202336313839326620736F5F
:1025E0006C6964203170783B0D0A20202020202067
:1025F000202020202020202020206261636B677231
:102600006F756E642D636F6C6F723A202332623285
:102610006232623B0D0A2020202020202020202032
:10262000202020202020626F782D736861646F77EE
:102630003A203020357078203070782023323232C2
:102640003632393B0D0A2020202020202020202057
:1026500020207D0D0A202020202020202020202046
:10266000202E706172616D20627574746F6E207BB4
:102670000D0A202020202020202020202020202083
:10268000202077696474683A203530253B0D0A2094
:102690002020202020202020202020202020206DED
:1026A000617267696E2D6C6566743A203135707899
:1026B0003B0D0A2020202020202020202020202028
:1026C000202020626F726465722D72616469757377
:1026D0003A203370783B0D0A202020202020202033
:1026E000202020202020202070616464696E672DE6
:1026F000746F703A203570783B0D0A20202020201E
:102700002020202020202020202020706164646967
:102710006E672D626F74746F6D3A203570783B0D63
:102720000A202020202020202020202020202020BF
:10273000206261636B67726F756E642D636F6C6F7F
:10274000723A20233862633334613B0D0A20202023
:1027500020202020202020202020202020636F6C9B
:102760006F723A207267622835312C2035312C2067
:102770003631293B0D0A2020202020202020202037
:10278000202020202020666F6E742D73697A653AB0
:10279000203172656D3B0D0A202020202020202052
:1027A0002020202020202020666F6E742D77656900
:1027B0006768743A20626F6C643B0D0A2020202009
:1027C000202020202020202020202020626F782D13
:1027D000736861646F773A203020357078203070EC
:1027E0007820233232323632393B0D0A2020202025
:1027F0002020202020202020202020207472616EA4
:10280000736974696F6E2D6475726174696F6E3A65
:10281000203530306D733B0D0A20202020202020F1
:1028200020202020207D0D0A0D0A2020202020209D
:102830002020202020202E706172616D206275742E
:10284000746F6E3A686F766572207B0D0A202020C7
:1028500020202020202020202020202020746F7085
:102860003A203270783B0D0A2020202020202020A2
:102870002020202020202020626F782D7368616442
:102880006F773A20302033707820307078202332F0
:1028900032323632393B0D0A2020202020202020E1
:1028A00020202020202020206261636B67726F75DA
:1028B0006E642D636F6C6F723A2023363138393273
:1028C000663B0D0A202020202020202020202020D0
:1028D00020202020636F6C6F723A20233232323610
:1028E00032393B0D0A2020202020202020202020CB
:1028F000207D0D0A0D0A20202020202020202020CD
:1029000020202E73617665207B0D0A202020202058
:10291000202020202020207D0D0A0D0A20202020AC
:1029200020202020202020202E7361766520683210
:10293000207B0D0A20202020202020202020202065
:102940002020202070616464696E673A2031307005
:102950007820302031307078203570783B0D0A2097
:102960002020202020202020202020202020206621
:102970006F6E742D7765696768743A20626F6C6456
:102980003B0D0A2020202020202020202020202055
:10299000202020666F6E742D73697A653A20312E7F
:1029A0003172656D3B0D0A20202020202020202040
:1029B0002020207D0D0A0D0A20202020202020200C
:1029C000202020202E73617665207464207B0D0A00
:1029D00020202020202020202020202020202020F7
:1029E00077696474683A203330253B0D0A20202033
:1029F0002020202020202020202020202070616402
:102A000064696E673A203270783B0D0A20202020DE
:102A100020202020202020207D0D0A0D0A202020AB
:102A20002020202020202020202E73617665207316
:102A3000656C656374207B0D0A20202020202020F7
:102A4000202020202020202020626F726465723AAE
:102A5000202338626333346120736F6C69642031E2
:102A600070783B0D0A2020202020202020202020CC
:102A70002020202020626F726465722D726164696B
:102A800075733A203370783B0D0A202020202020D7
:102A900020202020202020202020636F6C6F723A9D
:102AA000206C69676874677261793B0D0A20202089
:102AB0002020202020202020202020202062616350
:102AC0006B67726F756E642D636F6C6F723A202343
:102AD0003231323132313B0D0A202020202020209B
:102AE00020202020202020202070616464696E67EF
:102AF0003A203570783B0D0A20202020202020200D
:102B000020202020202020206D617267696E2D72A8
:102B1000696768743A203570783B0D0A20202020C0
:102B2000202020202020202020202020776964746D
:102B3000683A20313030253B0D0A2020202020200B
:102B400020202020202020202020637572736F72A7
:102B50003A20706F696E7465723B0D0A2020202048
:102B60002020202020202020202020207472616E30
:102B7000736974696F6E2D6475726174696F6E3AF2
:102B8000203530306D733B0D0A202020202020207E
:102B900020202020207D0D0A0D0A2020202020202A
:102BA0002020202020202E736176652073656C65BF
:102BB00063743A686F766572207B0D0A20202020AE
:102BC000202020202020202020202020626F7264DE
:102BD00065723A202336313839326620736F6C695A
:102BE00064203170783B0D0A2020202020202020F6
:102BF00020202020202020206261636B67726F7587
:102C00006E642D636F6C6F723A20233262326232CF
:102C1000623B0D0A20202020202020202020202080
:102C200020202020626F782D736861646F773A20CE
:102C300030203570782030707820233232323632AE
:102C4000393B0D0A20202020202020202020202079
:102C50007D0D0A0D0A202020202020202020202069
:102C6000202E73617665206F7074696F6E3A686F9D
:102C70007665722C0D0A2020202020202020202084
:102C800020202E73617665206F7074696F6E3A63D1
:102C90006865636B6564207B0D0A2020202020205E
:102CA000202020202020202020206261636B67727A
:102CB0006F756E642D636F6C6F723A2023363138F6
:102CC0003932663B0D0A20202020202020202020A1
:102CD00020207D0D0A0D0A202020202020202020E9
:102CE0002020202E7361766520696E707574207BBC
:102CF0000D0A2020202020202020202020202020FD
:102D0000202077696474683A20313030253B0D0A01
:102D100020202020202020202020202020202020B3
:102D200070616464696E673A203570783B0D0A20E3
:102D30002020202020202020202020202020206251
:102D40006F726465723A2023386263333461207392
:102D50006F6C6964203170783B0D0A2020202020A0
:102D60002020202020202020202020636F6C6F72E4
:102D70003A206C69676874677261793B0D0A20209C
:102D80002020202020202020202020202020626FB2
:102D9000726465722D7261646975733A203370785C
:102DA0003B0D0A2020202020202020202020202031
:102DB0002020206261636B67726F756E642D636F94
:102DC0006C6F723A20233231323132313B0D0A209E
:102DD000202020202020202020202020202020749F
:102DE00072616E736974696F6E2D64757261746956
:102DF0006F6E3A203530306D733B0D0A2020202055
:102E000020202020202020207D0D0A0D0A202020B7
:102E10002020202020202020202E7361766520692C
:102E20006E7075743A686F766572207B0D0A20208B
:102E30002020202020202020202020202020626F01
:102E4000726465723A202336313839326620736FE6
:102E50006C6964203170783B0D0A202020202020EE
:102E6000202020202020202020206261636B6772B8
:102E70006F756E642D636F6C6F723A20233262320D
:102E80006232623B0D0A20202020202020202020BA
:102E9000202020202020626F782D736861646F7776
:102EA0003A2030203570782030707820233232324A
:102EB0003632393B0D0A20202020202020202020DF
:102EC00020207D0D0A0D0A202020202020202020F7
:102ED0002020202E7361766520627574746F6E20D9
:102EE0007B0D0A20202020202020202020202020B0
:102EF00020202077696474683A20313030253B0DFA
:102F00000A202020202020202020202020202020D7
:102F100020626F726465722D7261646975733A2004
:102F20003370783B0D0A20202020202020202020F4
:102F300020202020202070616464696E672D746FEA
:102F4000703A203570783B0D0A2020202020202068
:102F500020202020202020202070616464696E677A
:102F60002D626F74746F6D3A203570783B0D0A20B6
:102F7000202020202020202020202020202020620F
:102F800061636B67726F756E642D636F6C6F723AFD
:102F900020233862633334613B0D0A202020202037
:102FA0002020202020202020202020636F6C6F72A2
:102FB0003A207267622835312C2035312C20363189
:102FC000293B0D0A20202020202020202020202006
:102FD00020202020666F6E742D73697A653A203147
:102FE00072656D3B0D0A202020202020202020200B
:102FF000202020202020666F6E742D776569676819
:10300000743A20626F6C643B0D0A2020202020203F
:1030100020202020202020202020626F782D73681F
:1030200061646F773A2030203570782030707820D6
:10303000233232323632393B0D0A20202020202024
:10304000202020202020202020207472616E7369AF
:1030500074696F6E2D6475726174696F6E3A203594
:1030600030306D733B0D0A202020202020202020AE
:103070002020207D0D0A0D0A202020202020202045
:10308000202020202E7361766520627574746F6E27
:103090003A686F766572207B0D0A20202020202060
:1030A00020202020202020202020746F703A203201
:1030B00070783B0D0A202020202020202020202076
:1030C0002020202020626F782D736861646F773A2A
:1030D000203020337078203070782023323232361E
:1030E00032393B0D0A2020202020202020202020C3
:1030F00020202020206261636B67726F756E642DE3
:10310000636F6C6F723A20233631383932663B0D6B
:103110000A202020202020202020202020202020C5
:1031200020636F6C6F723A20233232323632393B71
:103130000D0A2020202020202020202020207D0D6E
:103140000A0D0A2020202020202020202020202EB0
:10315000666F6F746572207B0D0A2020202020206E
:10316000202020202020202020206261636B6772B5
:103170006F756E642D636F6C6F723A207267622890
:1031800036362C2036362C203830293B0D0A2020AC
:10319000202020202020202020207D0D0A0D0A2024
:1031A00020202020202020202020202E666F6F74D9
:1031B00065725F5F726F77207B0D0A2020202020D0
:1031C0002020202020202020202020646973706C83
:1031D00061793A20666C65783B0D0A20202020201A
:1031E000202020202020202020202068656967687A
:1031F000743A20343070783B0D0A202020202020A3
:10320000202020202020202020206A7573746966E9
:10321000792D636F6E74656E743A2063656E7465A4
:10322000723B0D0A2020202020202020202020205A
:1032300020202020616C69676E2D6974656D733A7A
:103240002063656E7465723B0D0A202020202020CB
:103250002020202020207D0D0A0D0A202020202063
:10326000202020202020202E666F6F7465725F5F03
:1032700074657874207B0D0A2020202020202020D7
:103280002020202020202020636F6C6F723A2023A2
:103290006666663B0D0A202020202020202020206A
:1032A00020207D0D0A0D0A20202020202020202013
:1032B0002020202F2A746F6F6C74697020D0B2D1D7
:1032C00081D0BFD0BBD18BD0B2D0B0D18ED189D07C
:1032D000B8D0B520D0BFD0BED0B4D181D182D0BAC1
:1032E000D0B0D0B7D0BAD0B82A2F0D0A20202020D5
:1032F00020202020202020205B646174612D746FC9
:103300006F6C7469705D207B0D0A202020202020C6
:1033100020202020202020202020706F73697469D5
:103320006F6E3A2072656C61746976653B0D0A2098
:1033300020202020202020202020207D0D0A0D0A82
:103340002020202020202020202020205B64617469
:10335000612D746F6F6C7469705D3A3A6166746563
:1033600072207B0D0A2020202020202020202020D9
:103370002020202020636F6E74656E743A20617483
:10338000747228646174612D746F6F6C7469702934
:103390003B0D0A202020202020202020202020203B
:1033A000202020706F736974696F6E3A20616273B8
:1033B0006F6C7574653B0D0A202020202020202092
:1033C000202020202020202077696474683A203350
:1033D000303070783B0D0A20202020202020202033
:1033E00020202020202020746F703A202D38707803
:1033F0003B0D0A20202020202020202020202020DB
:103400002020206C6566743A20313230253B0D0A4D
:1034100020202020202020202020202020202020AC
:103420006261636B67726F756E643A202336313860
:103430003932663B0D0A2020202020202020202029
:10344000202020202020636F6C6F723A206C696707
:103450006874677261793B0D0A20202020202020AB
:1034600020202020202020202070616464696E6765
:103470003A20302E35656D3B0D0A2020202020207B
:1034800020202020202020202020626F782D7368AB
:1034900061646F773A20327078203270782035700E
:1034A00078207267626128302C20302C20302C204C
:1034B000302E33293B0D0A202020202020202020E0
:1034C00020202020202020706F696E7465722D6589
:1034D00076656E74733A206E6F6E653B0D0A202020
:1034E00020202020202020202020202020206F703D
:1034F00061636974793A20303B0D0A202020202036
:1035000020202020202020202020207472616E7333
:103510006974696F6E3A2031733B0D0A20202020B8
:10352000202020202020202020202020626F726474
:1035300065722D7261646975733A203570783B0D40
:103540000A20202020202020202020202020202091
:1035500020746578742D616C69676E3A2063656EBE
:103560007465723B0D0A202020202020202020207E
:1035700020207D0D0A0D0A20202020202020202040
:103580002020205B646174612D746F6F6C746970AE
:103590005D3A686F7665723A3A6166746572207B4F
:1035A0000D0A202020202020202020202020202044
:1035B00020206F7061636974793A20313B0D0A20D5
:1035C0002020202020202020202020202020207AA1
:1035D0002D696E6465783A20323B0D0A2020202048
:1035E00020202020202020207D0D0A0D0A202020D0
:1035F0002020202020202020202E746F6F6C7469E2
:1036000070207B0D0A202020202020202020202038
:1036100020202020207669736962696C6974793A88
:103620002068696464656E3B0D0A202020202020FC
:1036300020202020202020202020706F73697469B2
:103640006F6E3A2072656C61746976653B0D0A2075
:103650002020202020202020202020202020206426
:103660006973706C61793A20696E6C696E652D6260
:103670006C6F636B3B0D0A2020202020202020202F
:1036800020202020202020626F726465722D626FDE
:1036900074746F6D3A2031707820646F747465644F
:1036A00020626C61636B3B0D0A20202020202020CB
:1036B00020202020207D0D0A0D0A202020202020FF
:1036C0002020202020202E746F6F6C746970202EB3
:1036D000746F6F6C74697074657874207B0D0A2048
:1036E0002020202020202020202020202020207684
:1036F00069736962696C6974793A206869646465A0
:103700006E3B0D0A20202020202020202020202079
:103710002020202077696474683A20333030707834
:103720003B0D0A20202020202020202020202020A7
:103730002020206261636B67726F756E643A20238C
:103740003631383932663B0D0A20202020202020D7
:10375000202020202020202020636F6C6F723A20D0
:103760006C69676874677261793B0D0A20202020BC
:103770002020202020202020202020207465787404
:103780002D616C69676E3A206C6566743B0D0A208A
:1037900020202020202020202020202020202062E7
:1037A0006F726465722D7261646975733A20367048
:1037B000783B0D0A202020202020202020202020BF
:1037C0002020202070616464696E673A203570782B
:1037D0003B0D0A0D0A202020202020202020202020
:1037E00020202020202F2A20506F736974696F6E6B
:1037F0002074686520746F6F6C746970202A2F0DB7
:103800000A202020202020202020202020202020CE
:1038100020706F736974696F6E3A206162736F6CA8
:103820007574653B0D0A20202020202020202020B8
:103830002020202020207A2D696E6465783A20317E
:103840003B0D0A2020202020202020202020207D29
:103850000D0A0D0A202020202020202020202020BA
:103860002E746F6F6C7469703A686F766572202E73
:10387000746F6F6C74697074657874207B0D0A20A6
:1038800020202020202020202020202020202076E2
:1038900069736962696C6974793A207669736962DF
:1038A0006C653B0D0A202020202020202020202095
:1038B000207D0D0A0D0A20202020202020202020FD
:1038C0002020237363726F6C6C2D746F2D746F7076
:1038D0002D62746E207B0D0A2020202020202020C5
:1038E0002020202020202020646973706C61793AA8
:1038F000206E6F6E653B0D0A2020202020202020A6
:103900002020202020202020706F736974696F6E42
:103910003A2066697865643B0D0A2020202020202B
:1039200020202020202020202020626F74746F6DC2
:103930003A203530253B0D0A202020202020202051
:1039400020202020202020206C6566743A2033251A
:103950003B0D0A2020202020202020202020202075
:103960002020207A2D696E6465783A2039393B0D24
:103970000A2020202020202020202020202020205D
:1039800020666F6E742D73697A653A2031387078CD
:103990003B0D0A2020202020202020202020202035
:1039A000202020626F726465723A206E6F6E653BF4
:1039B0000D0A202020202020202020202020202030
:1039C00020206F75746C696E653A206E6F6E653B72
:1039D0000D0A202020202020202020202020202010
:1039E00020206261636B67726F756E642D636F6C0C
:1039F0006F723A20233631383932663B0D0A202067
:103A00002020202020202020202020202020636F24
:103A10006C6F723A207267622835312C2035312C58
:103A2000203631293B0D0A20202020202020202074
:103A300020202020202020637572736F723A20703E
:103A40006F696E7465723B0D0A20202020202020B3
:103A500020202020202020202070616464696E676F
:103A60003A20313570783B0D0A202020202020207C
:103A7000202020202020202020626F726465722D7B
:103A80007261646975733A203470783B0D0A2020A6
:103A90002020202020202020202020202020666F91
:103AA0006E742D7765696768743A20626F6C643B49
:103AB0000D0A20202020202020202020202020202F
:103AC000202077696474683A20353070783B0D0A9D
:103AD00020202020202020202020202020202020E6
:103AE000626F782D736861646F773A20302035708B
:103AF000782030707820233232323632393B0D0A4A
:103B000020202020202020202020202020202020B5
:103B10007472616E736974696F6E2D64757261740D
:103B2000696F6E3A203530306D733B0D0A202020CE
:103B30002020202020202020207D0D0A0D0A20207A
:103B400020202020202020202020237363726F6CEF
:103B50006C2D746F2D746F702D62746E3A686F7671
:103B60006572207B0D0A202020202020202020208C
:103B7000202020202020636F6C6F723A2023323285
:103B8000323632393B0D0A202020202020202020F0
:103B900020202020202020626F726465723A20313C
:103BA000707820736F6C6964202332323236323978
:103BB0003B0D0A2020202020202020202020202013
:103BC000202020626F782D736861646F773A20300F
:103BD00020337078203070782023323232363239F8
:103BE0003B0D0A20202020202020202020202020E3
:103BF0002020206261636B67726F756E642D636F46
:103C00006C6F723A20233631383932663B0D0A2008
:103C10002020202020202020202020202020206361
:103C20006F6C6F723A20233232323632393B0D0AD2
:103C30002020202020202020202020207D0D0A0D63
:103C40000A202020202020202020202020237363F1
:103C5000726F6C6C2D746F2D746F702D62746E2E7C
:103C600073686F77207B0D0A2020202020202020E1
:103C70002020202020202020646973706C61793A14
:103C800020626C6F636B3B0D0A20202020202020D7
:103C900020202020207D0D0A2020202020202020F0
:103CA0003C2F7374796C653E0D0A20202020202063
:103CB00020203C7363726970743E0D0A202020201E
:103CC00020202020202020206C65742064617465F1
:103CD000203D206E6577204461746528293B0D0ADC
:103CE0002020202020202020202020206C657420EF
:103CF00066696C654E616D653B0D0A2020202020B1
:103D0000202020202020202F2F20D0A1D0BED0B7CF
:103D1000D0B4D0B0D0B5D0BC20D0BDD0BED0B2D100
:103D20008BD0B920D0BED0B1D18AD0B5D0BAD18293
:103D300020D181D0B2D18FD0B7D0B0D0BDD0BDD13D
:103D40008BD18520D181D0BFD0B8D181D0BAD0BE9F
:103D5000D0B20D0A2020202020202020202020204A
:103D60007661722073796E634C69737431203D20E3
:103D70006E65772073796E634C69737428293B0DE7
:103D80000A20202020202020202020202076617260
:103D9000206E616D65203D2027D09CD0A320D0A14E
:103DA000D0A3D096273B0D0A2020202020202020C1
:103DB000202020206C6574206964506572696F64EE
:103DC000696346756E633B0D0A0D0A202020202092
:103DD00020202020202020636F6E7374206F707469
:103DE000696F6E73203D207B0D0A2020202020204B
:103DF000202020202020202020206D756C746970E8
:103E00006C653A20747275652C0D0A2020202020E4
:103E10002020202020202020202020737567676527
:103E2000737465644E616D653A0D0A202020202070
:103E3000202020202020202020202020202020277B
:103E400053555A27202B0D0A2020202020202020E7
:103E5000202020202020202020202020273A27203A
:103E60002B0D0A2020202020202020202020202070
:103E700020202020202020646174652E6765744412
:103E80006174652829202B0D0A2020202020202065
:103E900020202020202020202020202020272D2707
:103EA000202B0D0A20202020202020202020202030
:103EB0002020202020202020646174652E676574F6
:103EC0004D6F6E74682829202B0D0A202020202099
:103ED00020202020202020202020202020202027DB
:103EE0002D27202B0D0A20202020202020202020DC
:103EF00020202020202020202020646174652E674F
:103F0000657446756C6C5965617228292C0D0A2000
:103F1000202020202020202020202020202020744D
:103F2000797065733A205B0D0A2020202020202024
:103F3000202020202020202020202020207B0D0A4F
:103F40002020202020202020202020202020202071
:103F50002020202020202020646573637269707403
:103F6000696F6E3A202754657874272C0D0A20203B
:103F70002020202020202020202020202020202041
:103F80002020202020206163636570743A207B0D1F
:103F90000A20202020202020202020202020202037
:103FA0002020202020202020202020202027746571
:103FB00078742F706C61696E273A20272E7478749C
:103FC000272C0D0A20202020202020202020202007
:103FD0002020202020202020202020207D2C0D0AA1
:103FE00020202020202020202020202020202020D1
:103FF000202020207D2C0D0A202020202020202081
:1040000020202020202020205D2C0D0A2020202090
:104010002020202020202020202020206578636C74
:10402000756465416363657074416C6C4F7074694D
:104030006F6E3A20747275652C0D0A2020202020A6
:10404000202020202020207D3B0D0A0D0A2020204A
:1040500020202020202020202066756E6374696F48
:104060006E20746F42696E61727928737472696E22
:104070006729207B0D0A20202020202020202020BE
:10408000202020202020636F6E737420636F64658E
:10409000556E697473203D206E65772055696E7486
:1040A0003136417272617928737472696E672E6C51
:1040B000656E677468293B0D0A202020202020208F
:1040C000202020202020202020666F7220286C6570
:1040D000742069203D20303B2069203C20636F64C0
:1040E00065556E6974732E6C656E6774683B2069E4
:1040F0002B2B29207B0D0A2020202020202020206F
:104100002020202020202020202020636F6465555F
:104110006E6974735B695D203D20737472696E67AC
:104120002E63686172436F646541742869293B0D91
:104130000A20202020202020202020202020202095
:10414000207D0D0A2020202020202020202020203B
:1041500020202020636F6E73742063686172436F48
:10416000646573203D206E65772055696E74384113
:104170007272617928636F6465556E6974732E621B
:104180007566666572293B0D0A20202020202020BC
:104190002020202020202020206C65742072657350
:1041A000756C74203D2027273B0D0A2020202020FD
:1041B0002020202020202020202020666F72202810
:1041C0006C65742069203D20303B2069203C2063D1
:1041D000686172436F6465732E627974654C656EB5
:1041E0006774683B20692B2B29207B0D0A20202037
:1041F00020202020202020202020202020202020BF
:1042000020726573756C74202B3D20537472696E37
:10421000672E66726F6D43686172436F64652863D1
:10422000686172436F6465735B695D293B0D0A20A9
:104230002020202020202020202020202020207D21
:104240000D0A202020202020202020202020202097
:10425000202072657475726E20726573756C743B84
:104260000D0A2020202020202020202020207D0D2D
:104270000A0D0A2020202020202020202020206637
:10428000756E6374696F6E2066726F6D42696E61E0
:1042900072792862696E61727929207B0D0A20206B
:1042A0002020202020202020202020202020636F7C
:1042B0006E7374206279746573203D206E6577207B
:1042C00055696E743841727261792862696E6172E3
:1042D000792E6C656E677468293B0D0A20202020BA
:1042E000202020202020202020202020666F7220E7
:1042F000286C65742069203D20303B2069203C20DB
:1043000062797465732E6C656E6774683B20692BE7
:104310002B29207B0D0A2020202020202020202057
:104320002020202020202020202062797465735BCB
:10433000695D203D2062696E6172792E63686172E9
:10434000436F646541742869293B0D0A20202020B1
:104350002020202020202020202020207D0D0A2029
:10436000202020202020202020202020202020630A
:104370006F6E73742063686172436F646573203D70
:10438000206E65772055696E74313641727261799D
:104390002862797465732E627566666572293B0DB5
:1043A0000A20202020202020202020202020202023
:1043B000206C657420726573756C74203D2027270E
:1043C0003B0D0A20202020202020202020202020FB
:1043D000202020666F7220286C65742069203D20A3
:1043E000303B2069203C2063686172436F646573D1
:1043F0002E6C656E6774683B20692B2B29207B0D22
:104400000A202020202020202020202020202020C2
:104410002020202020726573756C74202B3D205362
:104420007472696E672E66726F6D43686172436F56
:1044300064652863686172436F6465735B695D29B5
:104440003B0D0A202020202020202020202020207A
:104450002020207D0D0A2020202020202020202028
:1044600020202020202072657475726E2072657382
:10447000756C743B0D0A2020202020202020202055
:1044800020207D0D0A0D0A20202020202020202021
:1044900020202066756E6374696F6E2047657444D2
:1044A00061746146726F6D536572766572416E64B8
:1044B000557064617465416C6C4669656C64732801
:1044C00029207B0D0A2020202020202020202020B1
:1044D0002020202020786872203D206E65772058AB
:1044E0004D4C487474705265717565737428293B1E
:1044F0000D0A2020202020202020202020202020E5
:1045000020207868722E6F70656E282747455427E3
:104510002C20276D61696E5F636F6E662E73687401
:104520006D6C2F706172616D6574726573272C20DC
:1045300074727565293B0D0A202020202020202040
:1045400020202020202020207868722E7265737031
:104550006F6E736554797065203D20276A736F6EA6
:10456000273B0D0A20202020202020202020202052
:10457000202020207868722E6F6E6C6F6164203D61
:104580002066756E6374696F6E202829207B0D0A82
:10459000202020202020202020202020202020201B
:1045A00020202020696620287868722E7265616458
:1045B000795374617465203D3D3D207868722E44C6
:1045C0004F4E45202626207868722E7374617475CC
:1045D00073203D3D3D2032303029207B0D0A2020C4
:1045E00020202020202020202020202020202020CB
:1045F0002020202020206C6574206A736F6E526525
:1046000073706F6E7365203D207868722E726573CB
:10461000706F6E73653B0D0A202020202020202023
:10462000202020202020202020202020202020208A
:10463000696620286A736F6E526573706F6E73655A
:104640002E52536F6E203C203730303029207B0DA6
:104650000A20202020202020202020202020202070
:1046600020202020202020202020202020646F6374
:10467000756D656E742E676574456C656D656E74D9
:104680004279496428276461746152536F6E272907
:104690002E76616C7565203D0D0A2020202020209B
:1046A000202020202020202020202020202020200A
:1046B000202020202020202020206A736F6E526549
:1046C00073706F6E73652E52536F6E3B0D0A202010
:1046D00020202020202020202020202020202020DA
:1046E0002020202020207D20656C73650D0A20206D
:1046F00020202020202020202020202020202020BA
:1047000020202020202020202020646F63756D65EC
:104710006E742E676574456C656D656E744279497B
:104720006428276461746152536F6E27292E766165
:104730006C7565203D0D0A2020202020202020209F
:104740002020202020202020202020202020202069
:10475000202020202020206A736F6E526573706FB6
:104760006E73652E52536F6E202B0D0A2020202071
:104770002020202020202020202020202020202039
:104780002020202020202020202020202720D09EF4
:10479000D0B1D180D18BD0B22FD0BFD180D0B5D005
:1047A000B2D18BD188D0B5D0BDD0B8D0B520D0BCD7
:1047B000D0B0D0BAD1812E20D181D0BED0BFD1808F
:1047C000D0BED182D0B8D0B2D0BBD0B5D0BDD0B8D9
:1047D000D18F273B0D0A0D0A2020202020202020E9
:1047E00020202020202020202020202020202020C9
:1047F000646F63756D656E742E676574456C656D69
:10480000656E744279496428276461746152536FFC
:10481000666627292E76616C7565203D0D0A20207D
:104820002020202020202020202020202020202088
:10483000202020202020202020206A736F6E5265C7
:1048400073706F6E73652E52536F66663B0D0A2050
:104850002020202020202020202020202020202058
:1048600020202020202020646F63756D656E742EDB
:10487000676574456C656D656E7442794964282777
:104880006461746144697370657273696F6E27291E
:104890002E76616C7565203D0D0A20202020202099
:1048A0002020202020202020202020202020202008
:1048B0002020202020206A736F6E526573706F6E07
:1048C00073652E44697370657273696F6E2E746FB1
:1048D00046697865642833293B0D0A202020202072
:1048E00020202020202020202020202020202020C8
:1048F000202020646F63756D656E742E6765744546
:104900006C656D656E7442794964282764617461D1
:10491000527374617427292E76616C7565203D0D84
:104920000A2020202020202020202020202020209D
:10493000202020202020202020202020206A736F8B
:104940006E526573706F6E73652E52737461743B33
:104950000D0A202020202020202020202020202080
:1049600020202020202020202020646F63756D658A
:104970006E742E676574456C656D656E7442794919
:10498000642827646174614669656C6427292E7602
:10499000616C7565203D0D0A2020202020202020FC
:1049A0002020202020202020202020202020202007
:1049B000202020206A736F6E526573706F6E73656E
:1049C0002E4669656C643B0D0A20202020202020A3
:1049D00020202020202020202020202020202020D7
:1049E00020646F63756D656E742E676574456C65C4
:1049F0006D656E74427949642827646174614977F2
:104A00006F726B27292E76616C7565203D0D0A202B
:104A10002020202020202020202020202020202096
:104A200020202020202020202020206A736F6E521A
:104A30006573706F6E73652E49776F726B3B0D0AED
:104A40002020202020202020202020202020202066
:104A50002020202020202020646F63756D656E74F7
:104A60002E676574456C656D656E7442794964287E
:104A700027646174614672657127292E76616C75B1
:104A800065203D0D0A2020202020202020202020ED
:104A90002020202020202020202020202020202016
:104AA000206A736F6E526573706F6E73652E4672F7
:104AB00065713B0D0A20202020202020202020206E
:104AC00020202020202020202020202020646F6310
:104AD000756D656E742E676574456C656D656E7475
:104AE0004279496428276461746149636F696C275E
:104AF000292E76616C7565203D0D0A20202020202E
:104B000020202020202020202020202020202020A5
:104B1000202020202020206A736F6E526573706FF2
:104B20006E73652E49636F696C3B0D0A202020204F
:104B30002020202020202020202020202020202075
:104B400020202020646F63756D656E742E67657418
:104B5000456C656D656E744279496428276461749B
:104B60006154696D6527292E76616C7565203D0D50
:104B70000A2020202020202020202020202020204B
:104B8000202020202020202020202020206A736F39
:104B90006E526573706F6E73652E54696D653B0D53
:104BA0000A0D0A2020202020202020202020202044
:104BB0002020202020202020202020646F63756D7D
:104BC000656E742E676574456C656D656E744279AB
:104BD000496428276461746153746174757327296B
:104BE0002E76616C7565203D0D0A20202020202046
:104BF00020202020202020202020202020202020B5
:104C00002020202020206A736F6E526573706F6EB3
:104C100073652E5374617475733B0D0A2020202038
:104C20002020202020202020202020202020202084
:104C300020202020646F63756D656E742E67657427
:104C4000456C656D656E74427949642827646174AA
:104C500061436F6E6E65637427292E76616C75658E
:104C6000203D0D0A20202020202020202020202050
:104C70002020202020202020202020202020202034
:104C80006A736F6E526573706F6E73652E436F6ECD
:104C90006E6563743B0D0A0D0A2020202020202021
:104CA0002020202020202020202020202020202004
:104CB00020646F63756D656E742E676574456C65F1
:104CC0006D656E7442794964282764617461535537
:104CD0004A5479706527292E76616C7565203D0DE3
:104CE0000A202020202020202020202020202020DA
:104CF000202020202020202020202020206A736FC8
:104D00006E526573706F6E73652E53554A54797089
:104D100065203E20300D0A20202020202020202049
:104D20002020202020202020202020202020202083
:104D3000202020202020203F2027D0A1D182D0BEBB
:104D4000D180D0BED0BDD0BDD0B8D0B520D0BFD1DD
:104D500080D0BED0B8D0B7D0B2D0BED0B4D0B8D149
:104D600082D0B5D0BBD0B8270D0A2020202020202B
:104D70002020202020202020202020202020202033
:104D8000202020202020202020203A2027D0A2D020
:104D90009ED09CD097D0ADD09B273B0D0A0D0A200A
:104DA0002020202020202020202020202020202003
:104DB00020202020202020696620286A736F6E52F0
:104DC0006573706F6E73652E53554A547970652004
:104DD0003D3D3D203029207B0D0A20202020202031
:104DE00020202020202020202020202020202020C3
:104DF000202020202020646F63756D656E742E67FF
:104E00006574456C656D656E7442794964282774D4
:104E1000725F52536F6E27292E7374796C652E64FE
:104E20006973706C6179203D0D0A202020202020BC
:104E30002020202020202020202020202020202072
:104E400020202020202020202020276E6F6E652724
:104E50003B0D0A2020202020202020202020202060
:104E600020202020202020202020202020202064FE
:104E70006F63756D656E742E676574456C656D65E1
:104E80006E7442794964282774725F44697370278D
:104E9000292E7374796C652E646973706C61792046
:104EA0003D0D0A202020202020202020202020200E
:104EB00020202020202020202020202020202020F2
:104EC000202020276E6F6E65273B0D0A20202020B2
:104ED00020202020202020202020202020202020D2
:104EE0002020202020202020646F63756D656E7463
:104EF0002E676574456C656D656E744279496428EA
:104F00002774725F527374617427292E7374796CDD
:104F1000652E646973706C6179203D0D0A20202034
:104F20002020202020202020202020202020202081
:104F30002020202020202020202020202027273B48
:104F40000D0A20202020202020202020202020208A
:104F500020202020202020202020202020202F2A38
:104F600009646F63756D656E742E676574456C6555
:104F70006D656E74427949642827702D6765726388
:104F80006F6E27292E7374796C652E646973706C4B
:104F90006179203D20276E6F6E65273B0D0A090958
:104FA00009090909646F63756D656E742E67657410
:104FB000456C656D656E74427949642827702D7360
:104FC000626F726B6127292E7374796C652E646928
:104FD00073706C6179203D2027273B2A2F0D0A2012
:104FE00020202020202020202020202020202020C1
:104FF000202020202020207D20656C7365207B0DE3
:105000000A202020202020202020202020202020B6
:1050100020202020202020202020202020646F63BA
:10502000756D656E742E676574456C656D656E741F
:1050300042794964282774725F52536F6E27292E74
:105040007374796C652E646973706C6179203D0DA1
:105050000A20202020202020202020202020202066
:105060002020202020202020202020202020202040
:105070002027273B0D0A2020202020202020202030
:105080002020202020202020202020202020202020
:105090002020646F63756D656E742E676574456C52
:1050A000656D656E7442794964282774725F44693E
:1050B000737027292E7374796C652E646973706C14
:1050C0006179203D0D0A2020202020202020202052
:1050D00020202020202020202020202020202020D0
:1050E00020202020202027273B0D0A2020202020C0
:1050F00020202020202020202020202020202020B0
:1051000020202020202020646F63756D656E742E32
:10511000676574456C656D656E74427949642827CE
:1051200074725F527374617427292E7374796C657D
:105130002E646973706C6179203D0D0A2020202057
:10514000202020202020202020202020202020205F
:10515000202020202020202020202020276E6F6E5D
:1051600065273B0D0A202020202020202020202001
:10517000202020202020202020202020202020202F
:10518000202F2A646F63756D656E742E6765744594
:105190006C656D656E74427949642827702D67656A
:1051A00072636F6E27292E7374796C652E64697330
:1051B000706C6179203D2027273B0D0A09090909F8
:1051C0000909646F63756D656E742E676574456C4F
:1051D000656D656E74427949642827702D73626F1E
:1051E000726B6127292E7374796C652E64697370F4
:1051F0006C6179203D20276E6F6E65273B2A2F0D4D
:105200000A202020202020202020202020202020B4
:105210002020202020202020207D0D0A0D0A202083
:10522000202020202020202020202020202020207E
:10523000202020202020646F63756D656E742E67BA
:105240006574456C656D656E7442794964282764A0
:1052500061746156657273696F6E27292E76616C71
:105260007565203D0D0A20202020202020202020B0
:10527000202020202020202020202020202020202E
:1052800020206A736F6E526573706F6E73652E5651
:10529000657273696F6E3B0D0A0D0A202020202075
:1052A00020202020202020202020202020202020FE
:1052B000202020646F63756D656E742E676574457C
:1052C0006C656D656E74427949642827736F666CEE
:1052D0006F7727292E73656C6563746564496E6406
:1052E0006578203D0D0A202020202020202020202D
:1052F00020202020202020202020202020202020AE
:1053000020206A736F6E526573706F6E73652E49DD
:10531000776F726B203C2035300D0A202020202032
:10532000202020202020202020202020202020207D
:1053300020202020202020202020203F20300D0A67
:10534000202020202020202020202020202020205D
:10535000202020202020202020202020202020204D
:105360003A206A736F6E526573706F6E73652E4963
:10537000776F726B203D3D3D2035300D0A20202097
:10538000202020202020202020202020202020201D
:10539000202020202020202020202020203F2031DD
:1053A0000D0A202020202020202020202020202026
:1053B00020202020202020202020202020202020ED
:1053C00020203A20323B0D0A2020202020202020BF
:1053D00020202020202020202020202020202020CD
:1053E000646F63756D656E742E676574456C656D6D
:1053F000656E74427949642827736F666C6F7731E4
:1054000027292E76616C7565203D0D0A202020200D
:10541000202020202020202020202020202020208C
:1054200020202020202020206A736F6E5265737028
:105430006F6E73652E53554A547970653B0D0A2083
:10544000202020202020202020202020202020205C
:1054500020202020202020646F63756D656E742EDF
:10546000676574456C656D656E744279496428277B
:1054700074657374496E707574496427292E76615A
:105480006C7565203D0D0A20202020202020202042
:10549000202020202020202020202020202020200C
:1054A0002020206A736F6E526573706F6E73652E65
:1054B000467265713B0D0A202020202020202020EC
:1054C0002020202020202020202020202020206498
:1054D0006F63756D656E742E676574456C656D657B
:1054E0006E74427949642827437572724B617475F2
:1054F00073686B6927292E76616C7565203D0D0AEE
:10550000202020202020202020202020202020209B
:105510002020202020202020202020206A736F6E51
:10552000526573706F6E73652E49636F696C3B0DC6
:105530000A20202020202020202020202020202081
:10554000202020202020202020646F63756D656E50
:10555000742E676574456C656D656E744279496437
:1055600028276D6178527327292E76616C75652026
:105570003D0D0A2020202020202020202020202037
:105580002020202020202020202020202020206AD1
:10559000736F6E526573706F6E73652E4D617852C6
:1055A000733B0D0A202020202020202020202020B6
:1055B000202020202020202020202020646F6375C0
:1055C0006D656E742E676574456C656D656E7442AD
:1055D00079496428276D61784469737065727369CD
:1055E0006F6E27292E76616C7565203D0D0A20208F
:1055F00020202020202020202020202020202020AB
:10560000202020202020202020206A736F6E5265E9
:1056100073706F6E73652E4D617844697370657237
:1056200074696F6E3B0D0A2020202020202020204E
:105630002020202020202020202020202020206426
:105640006F63756D656E742E676574456C656D6509
:105650006E744279496428276D6178487327292E32
:1056600076616C7565203D0D0A20202020202020C9
:10567000202020202020202020202020202020202A
:1056800020202020206A736F6E526573706F6E73D6
:10569000652E4D617848733B0D0A0D0A20202020AD
:1056A00020202020202020202020202020202020FA
:1056B000202020202F2F20D0BAD180D0B0D181D06F
:1056C000B8D0BC20D0B2D18BD0B2D0BED0B420D014
:1056D000BFD180D0B820D182D0B5D181D182D0B015
:1056E000D1850D0A202020202020202020202020CD
:1056F0002020202020202020202020206966202813
:105700000D0A2020202020202020202020202020C2
:105710002020202020202020202020202020646FF6
:1057200063756D656E742E676574456C656D656E29
:1057300074427949642827646174614469737065AF
:105740007273696F6E27292E76616C7565203E0D28
:105750000A2020202020202020202020202020205F
:1057600020202020202020202020202020646F6363
:10577000756D656E742E676574456C656D656E74C8
:105780004279496428276D61784469737065727342
:10579000696F6E27292E76616C75650D0A202020B1
:1057A00020202020202020202020202020202020F9
:1057B0002020202020290D0A202020202020202009
:1057C00020202020202020202020202020202020D9
:1057D00020202020646F63756D656E742E6765747C
:1057E000456C656D656E7442794964280D0A202008
:1057F00020202020202020202020202020202020A9
:10580000202020202020202020202020202027644D
:1058100061746144697370657273696F6E272C0DD2
:105820000A2020202020202020202020202020208E
:1058300020202020202020202020202020292E73FE
:1058400074796C652E636F6C6F72203D20277265D2
:1058500064273B0D0A20202020202020202020200B
:1058600020202020202020202020202020656C7354
:10587000650D0A202020202020202020202020200C
:1058800020202020202020202020202020202064D4
:105890006F63756D656E742E676574456C656D65B7
:1058A0006E7442794964280D0A202020202020208F
:1058B00020202020202020202020202020202020E8
:1058C000202020202020202020276461746144694A
:1058D0007370657273696F6E272C0D0A202020206B
:1058E00020202020202020202020202020202020B8
:1058F0002020202020202020292E7374796C652EF2
:10590000636F6C6F72203D2027677265656E273B61
:105910000D0A0D0A202020202020202020202020D9
:1059200020202020202020202020202069662028E0
:105930000D0A202020202020202020202020202090
:105940002020202020202020202020202020646FC4
:1059500063756D656E742E676574456C656D656EF7
:1059600074427949642827646174614669656C648E
:1059700027292E76616C7565203E0D0A2020202097
:105980002020202020202020202020202020202017
:105990002020202020202020646F63756D656E74A8
:1059A0002E676574456C656D656E7442794964282F
:1059B000276D6178487327292E76616C75650D0A0D
:1059C00020202020202020202020202020202020D7
:1059D0002020202020202020290D0A2020202020E7
:1059E00020202020202020202020202020202020B7
:1059F00020202020202020646F63756D656E742E3A
:105A0000676574456C656D656E74427949642827D5
:105A1000646174614669656C6427292E7374796CBE
:105A2000652E636F6C6F72203D0D0A2020202020B0
:105A30002020202020202020202020202020202066
:105A4000202020202020202020202027726564276D
:105A50003B0D0A2020202020202020202020202054
:105A60002020202020202020202020656C73650D20
:105A70000A2020202020202020202020202020203C
:105A800020202020202020202020202020646F6340
:105A9000756D656E742E676574456C656D656E74A5
:105AA000427949642827646174614669656C64279A
:105AB000292E7374796C652E636F6C6F72203D0DA7
:105AC0000A202020202020202020202020202020EC
:105AD00020202020202020202020202020202020C6
