:020000040800F2
:1000000078F00020317603082150030823500308BC
:10001000255003082750030829500308000000005A
:1000200000000000000000000000000099590208D4
:100030002B500308000000003D5902082D50030812
:10004000697C03086D7C0308717C0308757C0308D8
:10005000797C03087D7C0308817C0308857C030888
:10006000897C03088D7C0308917C0308957C030838
:10007000997C03089D7C0308A17C0308A57C0308E8
:10008000A97C0308AD7C0308B17C0308B57C030898
:10009000B97C0308BD7C0308C17C0308C57C030848
:1000A000C97C0308C1E10208CD7C0308D17C0308A8
:1000B000D57C0308D97C0308DD7C0308E17C0308B8
:1000C000E57C0308E97C0308ED7C0308F17C030868
:1000D000F57C0308F97C0308FD7C0308017D030817
:1000E000057D0308097D03080D7D0308117D0308C4
:1000F000157D0308197D03081D7D0308217D030874
:10010000257D0308297D03082D7D0308317D030823
:10011000357D0308397D03083D7D0308417D0308D3
:1001200041500308457D0308497D03084D7D0308C0
:10013000517D03084B500308557D0308597D030882
:100140005D7D0308617D0308657D0308697D030803
:100150006D7D0308717D0308757D0308797D0308B3
:100160007D7D0308817D0308857D0308897D030863
:100170008D7D0308917D0308957D03080000000034
:10018000997D03089D7D0308A17D0308A57D0308D3
:10019000A97D0308AD7D0308B17D0308B57D030883
:1001A0000000000000000000B97D0308BD7D0308C9
:1001B000C17D0308C57D0308C97D0308CD7D030803
:1001C000D17D0308D57D03082F6D61696E5F636F74
:1001D0006E662E7368746D6C0000000048545450B5
:1001E0002F312E3020323030204F4B0D0A536572A4
:1001F0007665723A206C7749502F312E332E31209C
:1002000028687474703A2F2F736176616E6E61681E
:100210002E6E6F6E676E752E6F72672F70726F6ABB
:10022000656374732F6C776970290D0A436F6E7460
:10023000656E742D747970653A20746578742F68D2
:10024000746D6C0D0A457870697265733A20467258
:10025000692C20313020417072203230303820310A
:10026000343A30303A303020474D540D0A507261E4
:10027000676D613A206E6F2D63616368650D0A0DCD
:100280000AEFBBBF3C21444F4354595045204854CA
:100290004D4C205055424C494320222D2F2F57338F
:1002A000432F2F4454442048544D4C20342E303199
:1002B000205472616E736974696F6E616C2F2F4583
:1002C0004E223E0D0A3C68746D6C3E0D0A0D0A3CD0
:1002D000686561643E0D0A093C6D65746120636860
:1002E00061727365743D227574662D38223E0D0A65
:1002F000093C6D657461206E616D653D22766965AE
:1003000077706F72742220636F6E74656E743D2215
:1003100077696474683D6465766963652D7769649F
:100320007468223E0D0A093C7469746C653ED09C69
:10033000D0A32D30313C2F7469746C653E0D0A09D1
:100340003C7374796C653E0D0A09092F2AD0BED022
:10035000B1D0BDD183D0BBD0B5D0BDD0B5D0BDD08C
:10036000B8D0B520D181D182D0B8D0BBD0B5D0B96A
:100370002A2F0D0A09090D0A09092A207B0D0A09ED
:10038000090970616464696E673A20303B0D0A099F
:1003900009096D617267696E3A20303B0D0A0909DF
:1003A00009626F726465723A20303B0D0A09097D5B
:1003B0000D0A0D0A09092A2C0D0A09092A3A626553
:1003C000666F72652C0D0A09092A3A6166746572B6
:1003D000207B0D0A0909092D6D6F7A2D626F782D2A
:1003E00073697A696E673A20626F726465722D6212
:1003F0006F783B0D0A0909092D7765626B69742DC9
:10040000626F782D73697A696E673A20626F7264E1
:1004100065722D626F783B0D0A090909626F782DAC
:1004200073697A696E673A20626F726465722D62D1
:100430006F783B0D0A09097D0D0A0D0A09093A6614
:100440006F6375732C0D0A09093A616374697665E7
:10045000207B0D0A0909096F75746C696E653A2075
:100460006E6F6E653B0D0A09097D0D0A0D0A0909BB
:10047000613A666F6375732C0D0A0909613A61630D
:1004800074697665207B0D0A0909096F75746C69BA
:100490006E653A206E6F6E653B0D0A09097D0D0A87
:1004A0000D0A09096E61762C0D0A0909666F6F74D1
:1004B00065722C0D0A09096865616465722C0D0A64
:1004C00009096173696465207B0D0A09090964697A
:1004D00073706C61793A20626C6F636B3B0D0A0933
:1004E000097D0D0A0D0A090968746D6C2C0D0A0945
:1004F00009626F6479207B0D0A09090968656967DB
:1005000068743A20313030253B0D0A0909097769B2
:100510006474683A20313030253B0D0A09090966B8
:100520006F6E742D7374796C653A20313030253BD1
:100530000D0A0909096C696E652D6865696768743B
:100540003A20313B0D0A090909666F6E742D7374E8
:10055000796C653A20313670783B0D0A0909092D0E
:100560006D732D746578742D73697A652D61646A75
:100570007573743A20313030253B0D0A0909092D75
:100580006D6F7A2D746578742D73697A652D616449
:100590006A7573743A20313030253B0D0A09090918
:1005A0002D7765626B69742D746578742D73697A23
:1005B000652D61646A7573743A20313030253B0DC6
:1005C0000A09097D0D0A0D0A0909696E7075742CF6
:1005D0000D0A0909627574746F6E2C0D0A0909748D
:1005E00065787461726561207B0D0A090909666F7F
:1005F0006E742D66616D696C793A20696E686572FA
:1006000069743B0D0A09097D0D0A0D0A0909696E15
:100610007075743A3A2D6D732D636C656172207B31
:100620000D0A090909646973706C61793A206E6F6B
:100630006E653B0D0A09097D0D0A0D0A09096275EF
:1006400074746F6E207B0D0A090909637572736FEC
:10065000723A20706F696E7465723B0D0A09097DEC
:100660000D0A0D0A0909627574746F6E3A3A2D6DA0
:100670006F7A2D666F6375732D696E6E6572207B60
:100680000D0A09090970616464696E673A20303B9C
:100690000D0A090909626F726465723A20303B0DD8
:1006A0000A09097D0D0A0D0A0909612C0D0A0909BB
:1006B000613A76697369746564207B0D0A090909DA
:1006C000746578742D6465636F726174696F6E3AD6
:1006D000206E6F6E653B0D0A09097D0D0A0D0A0932
:1006E00009613A686F766572207B0D0A0909097401
:1006F0006578742D6465636F726174696F6E3A20FA
:100700006E6F6E653B0D0A09097D0D0A0D0A090918
:10071000756C206C69207B0D0A0909096C6973747A
:100720002D7374796C652D747970653A206E6F6ED7
:10073000653B0D0A09097D0D0A0D0A0909696D67F6
:10074000207B0D0A090909766572746963616C2D55
:10075000616C69676E3A20746F703B0D0A09097D00
:100760000D0A0D0A090968312C0D0A090968322C95
:100770000D0A090968332C0D0A090968342C0D0A81
:10078000090968352C0D0A09096836207B0D0A090C
:100790000909666F6E742D7374796C653A20696E01
:1007A00068657269743B0D0A090909666F6E742DDC
:1007B0007765696768743A203430303B0D0A09095F
:1007C0007D0D0A0D0A09092F2A2D2D2D2D2D2D2DD8
:1007D0002D2D2D2D2D2D2D2D2D2D2D2D2D2D2D2D49
:1007E0002D2D2D2D2D2D2D2D2D2D2D2D2D2D2D2D39
:1007F0002D2D2D2D2D2D2D2D2D2D2D2D2D2D2D2D29
:100800002D2D2D2D2A2F0D0A0D0A09096872207B26
:100810000D0A090909626F726465723A206E6F6E83
:10082000653B0D0A0909096261636B67726F756E3A
:10083000642D636F6C6F723A2023366236653730F1
:100840003B0D0A0909096865696768743A203170C7
:10085000783B0D0A0909096D617267696E3A2031AA
:100860003B0D0A09097D0D0A0D0A09092E777261EF
:1008700070706572207B0D0A0909096D696E2D681B
:1008800065696768743A20313030253B0D0A0909E3
:10089000096F766572666C6F773A20686964646583
:1008A0006E3B0D0A0909096261636B67726F756EB1
:1008B000642D636F6C6F723A207267622835312C39
:1008C0002035312C203631293B0D0A09090964698C
:1008D00073706C61793A20666C65783B0D0A090982
:1008E00009666C65782D646972656374696F6E3A28
:1008F00020636F6C756D6E3B0D0A090909666F6E9A
:10090000742D66616D696C793A20274672616E6B51
:100910006C696E20476F7468696320426F6F6B2744
:100920002C2027417269616C204E6172726F7727AB
:100930002C20417269616C2C2073616E732D73657C
:100940007269663B0D0A090909666F6E742D776539
:10095000696768743A206E6F726D616C3B0D0A09AD
:100960000909666F6E742D73697A653A20313270A9
:10097000783B0D0A090909636F6C6F723A206C6944
:10098000676874677261793B0D0A09097D0D0A0970
:10099000092F2AD0B7D0B0D0B3D0BED182D0BED02C
:1009A000B2D0BAD0B020D0BFD0BED0B420D0B0D05A
:1009B000B4D0B0D0BFD182D0B8D0B2D0BDD183D165
:1009C0008E20D0B2D0B5D180D181D182D0BAD1839E
:1009D0002A2F0D0A09092E636F6E7461696E6572A4
:1009E000207B0D0A0909096D61782D7769647468A7
:1009F0003A203132303070783B0D0A0909096D61B7
:100A00007267696E3A2030206175746F3B0D0A0978
:100A1000097D0D0A0D0A0909406D65646961202888
:100A20006D61782D77696474683A3132303070784E
:100A300029207B0D0A0909092E636F6E7461696EA6
:100A400065727B0D0A090909096D61782D77696462
:100A500074683A2039373070783B0D0A0909097DEE
:100A60000D0A09097D0D0A0909406D656469612057
:100A7000286D61782D77696474683A3939327078F5
:100A800029207B0D0A0909092E636F6E7461696E56
:100A900065727B0D0A090909096D61782D77696412
:100AA00074683A2037353070783B0D0A0909097DA2
:100AB0000D0A09097D0D0A0909406D656469612007
:100AC000286D61782D77696474683A3736377078A5
:100AD00029207B0D0A0909092E636F6E7461696E06
:100AE00065727B0D0A090909096D61782D776964C2
:100AF00074683A206E6F6E653B0D0A0909097D0D19
:100B00000A09097D0D0A0D0A09092E636F6E7465C5
:100B10006E74207B0D0A090909666C65783A2031EC
:100B2000203120313030253B0D0A090909636F6CF3
:100B30006F723A206C69676874677261793B0D0A5D
:100B400009097D0D0A0D0A09092E6865616465723F
:100B5000207B0D0A0909096261636B67726F756E0C
:100B6000642D636F6C6F723A207267622836362C80
:100B70002036362C203830293B0D0A0909097061CE
:100B80006464696E673A203130707820303B0D0A1A
:100B90000909096865696768743A2035253B0D0ABB
:100BA0000D0A09097D0D0A0D0A09092E686561649F
:100BB00065725F5F726F77207B0D0A0909096469AE
:100BC00073706C61793A20666C65783B0D0A09098F
:100BD0007D0D0A0D0A09092E6865616465725F5F03
:100BE000627574746F6E73207B0D0A090909666C57
:100BF00065783A203120312033332E333333253B8F
:100C00000D0A0909092F2A6865696768743A203155
:100C10003030253B2A2F0D0A09097D0D0A0D0A09DE
:100C2000092E6865616465725F5F627574746F6ECA
:100C30007320666F726D207B0D0A0909096D617260
:100C400067696E2D6C6566743A203370783B0D0AC7
:100C50000909096D617267696E2D72696768743A76
:100C6000203370783B0D0A09097D0D0A0D0A090928
:100C70002E6865616465725F5F627574746F6E7310
:100C800020627574746F6E207B0D0A0909097769FB
:100C90006474683A20313030253B0D0A0909096235
:100CA0006F726465722D7261646975733A20337076
:100CB000783B0D0A09090970616464696E672D74D7
:100CC0006F703A203570783B0D0A0909097061642C
:100CD00064696E672D626F74746F6D3A2035707839
:100CE0003B0D0A0909096261636B67726F756E6477
:100CF0002D636F6C6F723A20233842433334413B8B
:100D00000D0A090909636F6C6F723A2072676228D5
:100D100035312C2035312C203631293B0D0A09097B
:100D200009666F6E742D73697A653A20312E3172BF
:100D3000656D3B0D0A090909666F6E742D7765694B
:100D40006768743A20626F6C643B0D0A0909096296
:100D50006F782D736861646F773A30203570782032
:100D600030707820233232323632393B0D0A09098D
:100D7000097472616E736974696F6E2D6475726146
:100D800074696F6E3A203530306D733B0D0A090976
:100D90007D0D0A0D0A0D0A0D0A09092E68656164A8
:100DA00065725F5F627574746F6E732062757474C0
:100DB0006F6E3A686F766572207B0D0A0909092FFC
:100DC0002A626F782D736861646F773A203070788B
:100DD00020357078203130707820307078202332C0
:100DE00032323632393B2A2F0D0A090909746F70E5
:100DF0003A203270783B0D0A090909626F782D7329
:100E00006861646F773A30203370782030707820D2
:100E1000233232323632393B0D0A090909626163E5
:100E20006B67726F756E642D636F6C6F723A2023FF
:100E30003631383932663B0D0A090909636F6C6F28
:100E4000723A20233232323632393B0D0A09097D9B
:100E50000D0A09092E6865616465725F5F627574C9
:100E6000746F6E7320627574746F6E2E6865616442
:100E700065725F5F616374697665207B0D0A09099D
:100E8000096261636B67726F756E642D636F6C6F5F
:100E9000723A20233631383932663B0D0A09097D12
:100EA0000D0A09092E6865616465725F5F62757479
:100EB000746F6E7320627574746F6E2E68656164F2
:100EC00065725F5F6163746976653A686F766572B3
:100ED000207B0D0A0909092F2A626F782D7368613A
:100EE000646F773A20307078203570782031307018
:100EF000782030707820233232323632393B2A2F34
:100F00000D0A090909746F703A203270783B0D0A96
:100F1000090909626F782D736861646F773A302030
:100F20003370782030707820233232323632393BB9
:100F30000D0A0909096261636B67726F756E642D32
:100F4000636F6C6F723A20233362353331643B0D2B
:100F50000A090909636F6C6F723A20233232323604
:100F600032393B0D0A09097D0D0A0D0A09092E6364
:100F70006F6E74656E745F5F726F77207B0D0A0908
:100F80000909646973706C61793A20666C65783B15
:100F90000D0A090909666C65782D646972656374C8
:100FA000696F6E3A20636F6C756D6E3B0D0A0909AF
:100FB000096865696768743A20313030253B0D0A4D
:100FC00009097D0D0A0D0A09092E64617461207BEF
:100FD0000D0A09090970616464696E672D6C6566A4
:100FE000743A20313070783B0D0A09097D0D0A0DE5
:100FF0000A09092E64617461206832207B0D0A0998
:10100000090970616464696E673A20313070782034
:10101000302031307078203570783B0D0A0909098D
:10102000666F6E742D7765696768743A20626F6CBD
:10103000643B0D0A090909666F6E742D73697A6540
:101040003A20312E3172656D3B0D0A0909090D0AEE
:101050000D0A09097D0D0A0D0A09092E64617461E2
:10106000207472207B0D0A090909636F6C6F723A54
:10107000206C69676874677261793B0D0A09090918
:10108000626F726465722D626F74746F6D3A207353
:101090006F6C696420327078207267622836362C53
:1010A0002036362C203830293B0D0A09097D0D0ADF
:1010B0000D0A09092E64617461207464207B0D0A95
:1010C00009090970616464696E673A203570782097
:1010D000313070783B0D0A090909746578742D6107
:1010E0006C69676E3A206C6566743B0D0A09097D70
:1010F0000D0A0D0A09092E7376672D636F6E7461F0
:10110000696E6572207B0D0A09090966696C6C3A83
:1011100020233842433334413B0D0A090909666CE8
:101120006F61743A2072696768743B0D0A09090996
:10113000626F726465723A203070783B0D0A09095B
:10114000096261636B67726F756E642D636F6C6F9C
:10115000723A207267622835312C2035312C2036C6
:1011600031293B0D0A09097D0D0A0D0A09092E7363
:1011700076672D636F6E7461696E65723A686F761B
:101180006572207376672070617468207B0D0A0990
:10119000090966696C6C3A20233631383932663B6E
:1011A0000D0A09097D0D0A0D0A09092E636F6E7477
:1011B000726F6C207B7D0D0A0D0A09092E636F6E1C
:1011C00074726F6C2074626F6479207B0D0A090958
:1011D00009636F6C6F723A206C696768746772613B
:1011E000793B0D0A09097D0D0A0D0A09092E636F65
:1011F0006E74726F6C206832207B0D0A09090970C9
:10120000616464696E673A20313070782030203133
:10121000307078203570783B0D0A090909666F6EC9
:10122000742D7765696768743A20626F6C643B0D52
:101230000A090909666F6E742D73697A653A20315F
:101240002E3172656D3B0D0A09097D0D0A0D0A09E3
:10125000092E636F6E74726F6C5F5F726F77207BA5
:101260000D0A090909646973706C61793A20666C2A
:1012700065783B0D0A09097D0D0A0D0A09092E63DF
:101280006F6E74726F6C5F5F627574746F6E7320D3
:101290007B0D0A090909666C65783A2031203120F6
:1012A00033302E333333253B0D0A0909092F2A68C1
:1012B00065696768743A20313030253B2A2F0D0A62
:1012C00009097D0D0A0D0A09092E636F6E74726F8C
:1012D0006C5F5F627574746F6E7320666F726D20E1
:1012E0007B0D0A0909096D617267696E3A203370D6
:1012F000783B0D0A09097D0D0A0D0A09092E636F55
:101300006E74726F6C5F5F627574746F6E7320625F
:101310007574746F6E207B0D0A090909776964740E
:10132000683A20313030253B0D0A090909626F7295
:101330006465722D7261646975733A203370783B0D
:101340000D0A09090970616464696E672D746F7014
:101350003A203570783B0D0A0909097061646469A7
:101360006E672D626F74746F6D3A203570783B0D27
:101370000A0909096261636B67726F756E642D6398
:101380006F6C6F723A20233842433334413B0D0A6D
:10139000090909636F6C6F723A20726762283531F0
:1013A0002C2035312C203631293B0D0A09090966DC
:1013B0006F6E742D73697A653A203172656D3B0DDD
:1013C0000A090909666F6E742D7765696768743A52
:1013D00020626F6C643B0D0A090909626F782D73F6
:1013E0006861646F773A30203570782030707820EB
:1013F000233232323632393B0D0A090909747261DF
:101400006E736974696F6E2D6475726174696F6E45
:101410003A203530306D733B0D0A0D0A09097D0DF8
:101420000A0D0A09092E636F6E74726F6C5F5F623A
:101430007574746F6E7320627574746F6E3A686F32
:10144000766572207B0D0A090909746F703A2032A3
:1014500070783B0D0A090909626F782D7368616421
:101460006F773A3020337078203070782023323212
:10147000323632393B0D0A0909096261636B6772C2
:101480006F756E642D636F6C6F723A20233631383E
:101490003932663B0D0A090909636F6C6F723A2095
:1014A000233232323632393B0D0A09097D0D0A0DDD
:1014B0000A090923627574746F6E5F5F73746F70CD
:1014C000207B0D0A0909096261636B67726F756E93
:1014D000642D636F6C6F723A202344333246324678
:1014E0003B0D0A09097D0D0A0D0A0909236275746D
:1014F000746F6E5F5F73746F703A686F7665722099
:101500007B0D0A0909096261636B67726F756E640E
:101510002D636F6C6F723A20233866323132313B63
:101520000D0A09097D0D0A0D0A0D0A09092E7061BF
:1015300072616D7B0D0A0909090D0A09097D0D0A01
:101540000D0A09092E706172616D2074727B0D0A9B
:101550000909090D0A09097D0D0A09092E70617230
:10156000616D2068327B0D0A090909706164646944
:101570006E673A203130707820302031307078201A
:101580003570783B0D0A090909666F6E742D776511
:10159000696768743A20626F6C643B0D0A09090937
:1015A000666F6E742D73697A653A20312E317265DB
:1015B0006D3B0D0A09097D0D0A0D0A09092E70619E
:1015C00072616D2074647B0D0A090909776964747E
:1015D000683A203330253B0D0A09090970616464BB
:1015E000696E673A203570783B0D0A090909746500
:1015F00078742D616C69676E3A2072696768743B14
:101600000D0A09097D0D0A0D0A09092E7061726122
:101610006D20746420707B0D0A0909097465787463
:101620002D616C69676E3A206C6566743B0D0A0922
:101630000909636F6C6F723A206C6967687467722E
:1016400061793B0D0A09097D0D0A0D0A09092E7001
:101650006172616D2073656C656374207B0D0A098E
:101660000909626F726465723A2023384243333449
:101670004120736F6C6964203170783B0D0A090951
:1016800009626F726465722D7261646975733A20C4
:101690003370783B0D0A090909636F6C6F723A2049
:1016A0006C69676874677261793B0D0A09090962A0
:1016B00061636B67726F756E642D636F6C6F723AE6
:1016C00020233231323132313B0D0A090909706170
:1016D0006464696E673A203570783B0D0A09090920
:1016E0006D617267696E2D72696768743A20357032
:1016F000783B0D0A09090977696474683A2031302A
:1017000030253B0D0A090909637572736F723A201F
:10171000706F696E7465723B0D0A09090974726114
:101720006E736974696F6E2D6475726174696F6E22
:101730003A203530306D733B0D0A09097D0D0A09D9
:10174000092E706172616D2073656C6563743A680F
:101750006F766572207B0D0A090909626F726465F4
:10176000723A202336313839326620736F6C6964DF
:10177000203170783B0D0A0909096261636B677259
:101780006F756E642D636F6C6F723A202023326226
:10179000326232623B0D0A090909626F782D736863
:1017A00061646F773A30203570782030707820236C
:1017B0003232323632393B0D0A09097D0D0A0D0AE3
:1017C00009092E706172616D206F7074696F6E3AD5
:1017D000686F7665722C0D0A09092E706172616D51
:1017E000206F7074696F6E3A636865636B6564201F
:1017F0007B0D0A0909096261636B67726F756E641C
:101800002D636F6C6F723A20233631383932663B64
:101810000D0A09097D0D0A0D0A09092E7061726110
:101820006D20696E707574207B0D0A09090977694E
:101830006474683A20313030253B0D0A090909707B
:10184000616464696E673A203570783B0D0A090956
:1018500009626F726465723A20233842433334411F
:1018600020736F6C6964203170783B0D0A09090997
:10187000636F6C6F723A206C696768746772617924
:101880003B0D0A090909626F726465722D72616409
:101890006975733A203370783B0D0A090909626152
:1018A000636B67726F756E642D636F6C6F723A2035
:1018B000233231323132313B0D0A09090974726128
:1018C0006E736974696F6E2D6475726174696F6E81
:1018D0003A203530306D733B0D0A09097D0D0A0D34
:1018E0000A09092E706172616D20696E7075743A13
:1018F000686F766572207B0D0A090909626F726450
:1019000065723A202336313839326620736F6C693C
:1019100064203170783B0D0A0909096261636B67C5
:10192000726F756E642D636F6C6F723A2020233274
:1019300062326232623B0D0A090909626F782D73C7
:101940006861646F773A3020357078203070782085
:10195000233232323632393B0D0A09097D0D0A092C
:10196000092E706172616D20627574746F6E207BD8
:101970000D0A09090977696474683A203530253BF6
:101980000D0A0909096D617267696E2D6C656674CF
:101990003A20313570783B0D0A090909626F72648B
:1019A00065722D7261646975733A203370783B0DEE
:1019B0000A09090970616464696E672D746F703A71
:1019C000203570783B0D0A09090970616464696EFD
:1019D000672D626F74746F6D3A203570783B0D0A15
:1019E0000909096261636B67726F756E642D636FBD
:1019F0006C6F723A20233842433334413B0D0A095D
:101A00000909636F6C6F723A207267622835312C56
:101A10002035312C203631293B0D0A090909666F22
:101A20006E742D73697A653A20312E3072656D3B84
:101A30000D0A090909666F6E742D77656967687408
:101A40003A20626F6C643B0D0A090909626F782DB8
:101A5000736861646F773A30203570782030707821
:101A600020233232323632393B0D0A0909097472A9
:101A7000616E736974696F6E2D6475726174696FDC
:101A80006E3A203530306D733B0D0A09097D0D0A21
:101A90000D0A09092E706172616D20627574746F90
:101AA0006E3A686F766572207B0D0A090909746FBA
:101AB000703A203270783B0D0A090909626F782D5F
:101AC000736861646F773A302033707820307078B3
:101AD00020233232323632393B0D0A09090962615C
:101AE000636B67726F756E642D636F6C6F723A20F3
:101AF000233631383932663B0D0A090909636F6CA8
:101B00006F723A20233232323632393B0D0A0909DC
:101B10007D0D0A0D0A0D0A0D0A09092E73617665FD
:101B2000207B7D0D0A0D0A09092E736176652068F8
:101B3000327B0D0A09090970616464696E673A2095
:101B40003130707820302031307078203570783B1B
:101B50000D0A090909666F6E742D776569676874E7
:101B60003A20626F6C643B0D0A090909666F6E7456
:101B70002D73697A653A20312E3172656D3B0D0AFD
:101B800009097D0D0A0D0A09092E73617665207415
:101B900064207B0D0A09090977696474683A203367
:101BA00030253B0D0A09090970616464696E673A62
:101BB000203270783B0D0A09097D0D0A0D0A0909CA
:101BC0002E736176652073656C656374207B0D0AE6
:101BD000090909626F726465723A202338424333FF
:101BE000344120736F6C6964203170783B0D0A09B1
:101BF0000909626F726465722D7261646975733A66
:101C0000203370783B0D0A090909636F6C6F723AD3
:101C1000206C69676874677261793B0D0A0909096C
:101C20006261636B67726F756E642D636F6C6F7248
:101C30003A20233231323132313B0D0A0909097021
:101C4000616464696E673A203570783B0D0A090952
:101C5000096D617267696E2D72696768743A203523
:101C600070783B0D0A09090977696474683A203174
:101C70003030253B0D0A090909637572736F723A9A
:101C800020706F696E7465723B0D0A0909097472E0
:101C9000616E736974696F6E2D6475726174696FBA
:101CA0006E3A203530306D733B0D0A09097D0D0AFF
:101CB0000D0A09092E736176652073656C6563747E
:101CC0003A686F766572207B0D0A090909626F72A6
:101CD0006465723A202336313839326620736F6C6E
:101CE0006964203170783B0D0A0909096261636BF0
:101CF00067726F756E642D636F6C6F723A2020236C
:101D00003262326232623B0D0A090909626F782D34
:101D1000736861646F773A3020357078203070785E
:101D200020233232323632393B0D0A09097D0D0A41
:101D30000D0A09092E73617665206F7074696F6EE4
:101D40003A686F7665722C0D0A09092E7361766503
:101D5000206F7074696F6E3A636865636B656420A9
:101D60007B0D0A0909096261636B67726F756E64A6
:101D70002D636F6C6F723A20233631383932663BEF
:101D80000D0A09097D0D0A0D0A09092E7361766590
:101D900020696E707574207B0D0A090909776964E2
:101DA00074683A20313030253B0D0A090909706109
:101DB0006464696E673A203570783B0D0A09090939
:101DC000626F726465723A20233842433334412093
:101DD000736F6C6964203170783B0D0A09090963DF
:101DE0006F6C6F723A206C69676874677261793BD7
:101DF0000D0A090909626F726465722D7261646966
:101E000075733A203370783B0D0A090909626163E2
:101E10006B67726F756E642D636F6C6F723A2023FF
:101E20003231323132313B0D0A0909097472616E67
:101E3000736974696F6E2D6475726174696F6E3A3F
:101E4000203530306D733B0D0A09097D0D0A0D0AEE
:101E500009092E7361766520696E7075743A686F32
:101E6000766572207B0D0A090909626F72646572DA
:101E70003A202336313839326620736F6C6964201A
:101E80003170783B0D0A0909096261636B67726FF3
:101E9000756E642D636F6C6F723A2020233262324C
:101EA0006232623B0D0A090909626F782D7368611D
:101EB000646F773A30203570782030707820233284
:101EC00032323632393B0D0A09097D0D0A0D0A09F5
:101ED000092E7361766520627574746F6E207B0DB8
:101EE0000A09090977696474683A20313030253B62
:101EF0000D0A090909626F726465722D7261646965
:101F000075733A203370783B0D0A090909706164D2
:101F100064696E672D746F703A203570783B0D0AD6
:101F200009090970616464696E672D626F74746F6A
:101F30006D3A203570783B0D0A0909096261636BBF
:101F400067726F756E642D636F6C6F723A20233801
:101F500042433334413B0D0A090909636F6C6F72C8
:101F60003A207267622835312C2035312C203631E9
:101F7000293B0D0A090909666F6E742D73697A652C
:101F80003A20312E3072656D3B0D0A090909666FE2
:101F90006E742D7765696768743A20626F6C643B74
:101FA0000D0A090909626F782D736861646F773AC9
:101FB000302035707820307078202332323236323B
:101FC000393B0D0A0909097472616E736974696F8E
:101FD0006E2D6475726174696F6E3A203530306DA4
:101FE000733B0D0A09097D0D0A0D0A09092E73615B
:101FF000766520627574746F6E3A686F76657220CC
:102000007B0D0A090909746F703A203270783B0D14
:102010000A090909626F782D736861646F773A3035
:1020200020337078203070782023323232363239C3
:102030003B0D0A0909096261636B67726F756E6413
:102040002D636F6C6F723A20233631383932663B1C
:102050000D0A090909636F6C6F723A20233232321C
:102060003632393B0D0A09097D0D0A0D0A09092E80
:10207000666F6F746572207B0D0A090909626163DE
:102080006B67726F756E642D636F6C6F723A20723E
:1020900067622836362C2036362C203830293B0D06
:1020A0000A09097D0D0A0D0A09092E666F6F74650C
:1020B000725F5F726F77207B0D0A0909096469738B
:1020C000706C61793A20666C65783B0D0A090909E4
:1020D0006865696768743A20343070783B0D0A0986
:1020E00009096A7573746966792D636F6E74656E1C
:1020F000743A2063656E7465723B0D0A09090961C3
:102100006C69676E2D6974656D733A2063656E74D2
:1021100065723B0D0A09097D0D0A0D0A09092E6633
:102120006F6F7465725F5F74657874207B0D0A0948
:102130000909636F6C6F723A20236666663B0D0A6D
:1021400009097D0D0A0D0A09092F2A746F6F6C7435
:10215000697020D0B2D181D0BFD0BBD18BD0B2D0EA
:10216000B0D18ED189D0B8D0B520D0BFD0BED0B438
:10217000D181D182D0BAD0B0D0B7D0BAD0B82A2FBE
:102180000D0A09095B646174612D746F6F6C746969
:10219000705D207B0D0A090909706F736974696F9E
:1021A0006E3A2072656C61746976653B0D0A0909A7
:1021B0007D0D0A0D0A09095B646174612D746F6FEE
:1021C0006C7469705D3A3A6166746572207B0D0AC1
:1021D000090909636F6E74656E743A2061747472D4
:1021E00028646174612D746F6F6C746970293B0D84
:1021F0000A090909706F736974696F6E3A20616228
:10220000736F6C7574653B0D0A090909776964740D
:10221000683A2033303070783B0D0A090909746F31
:10222000703A202D3870783B0D0A0909096C6566F3
:10223000743A20313230253B0D0A09090962616385
:102240006B67726F756E643A2023363138393266A7
:102250003B0D0A090909636F6C6F723A206C69675C
:102260006874677261793B0D0A09090970616464D9
:10227000696E673A20302E35656D3B0D0A090909F4
:10228000626F782D736861646F773A2032707820BE
:1022900032707820357078207267626128302C2087
:1022A000302C20302C20302E33293B0D0A0909090F
:1022B000706F696E7465722D6576656E74733A2001
:1022C0006E6F6E653B0D0A0909096F706163697471
:1022D000793A20303B0D0A0909097472616E7369FD
:1022E00074696F6E3A2031733B0D0A090909626FF8
:1022F000726465722D7261646975733A2035707805
:102300003B0D0A090909746578742D616C69676E63
:102310003A2063656E7465723B0D0A09097D0D0AEA
:102320000D0A09095B646174612D746F6F6C7469C7
:10233000705D3A686F7665723A3A616674657220CC
:102340007B0D0A0909096F7061636974793A20315C
:102350003B0D0A0909097A2D696E6465783A2032C5
:102360003B0D0A09097D0D0A0D0A0909092E746F32
:102370006F6C746970207B0D0A090909097669730D
:102380006962696C6974793A2068696464656E3B56
:102390000D0A090909706F736974696F6E3A2072CA
:1023A000656C61746976653B0D0A09090964697396
:1023B000706C61793A20696E6C696E652D626C6F24
:1023C000636B3B0D0A090909626F726465722D62C5
:1023D0006F74746F6D3A2031707820646F74746517
:1023E0006420626C61636B3B0D0A0909097D0D0A6B
:1023F0000D0A0909092E746F6F6C746970202E74B0
:102400006F6F6C74697074657874207B0D0A0909AC
:10241000097669736962696C6974793A20686964DC
:1024200064656E3B0D0A09090977696474683A208E
:1024300033303070783B0D0A0909096261636B67BC
:10244000726F756E643A20233631383932663B0D2F
:102450000A090909636F6C6F723A206C69676874C6
:10246000677261793B0D0A090909746578742D61F9
:102470006C69676E3A206C6566743B0D0A09090940
:10248000626F726465722D7261646975733A203689
:1024900070783B0D0A09090970616464696E673AD6
:1024A000203570783B0D0A0909090D0A0D0A090942
:1024B000092F2A20506F736974696F6E20746865E4
:1024C00020746F6F6C746970202A2F0D0A09090936
:1024D000706F736974696F6E3A206162736F6C75A7
:1024E00074653B0D0A0909097A2D696E6465783AAD
:1024F00020313B0D0A0909097D0D0A0D0A09090958
:102500002E746F6F6C7469703A686F766572202EE6
:10251000746F6F6C74697074657874207B0D0A0930
:1025200009097669736962696C6974793A20766918
:102530007369626C653B0D0A0909097D0D0A0D0A74
:102540000D0A0909237363726F6C6C2D746F2D74FF
:102550006F702D62746E207B0D0A0909096469731E
:10256000706C61793A206E6F6E653B0D0A0909093E
:10257000706F736974696F6E3A2066697865643B41
:102580000D0A090909626F74746F6D3A20353025A0
:102590003B0D0A0909096C6566743A2033253B0D29
:1025A0000A0909097A2D696E6465783A2039393B40
:1025B0000D0A090909666F6E742D73697A653A20F0
:1025C000313870783B0D0A090909626F72646572CF
:1025D0003A206E6F6E653B0D0A0909096F75746CC0
:1025E000696E653A206E6F6E653B0D0A09090962D6
:1025F00061636B67726F756E642D636F6C6F723A97
:10260000233631383932663B0D0A090909636F6C8C
:102610006F723A207267622835312C2035312C20B8
:102620003631293B0D0A090909637572736F723AD5
:1026300020706F696E7465723B0D0A09090970613B
:102640006464696E673A20313570783B0D0A090978
:1026500009626F726465722D7261646975733A20E4
:102660003470783B0D0A090909666F6E742D776521
:10267000696768743A20626F6C643B0D0A09090946
:1026800077696474683A20353070783B0D0A09091F
:1026900009626F782D736861646F773A3020357006
:1026A000782030707820233232323632393B0D0AAE
:1026B0000909097472616E736974696F6E2D6475AE
:1026C000726174696F6E3A203530306D733B0D0A5C
:1026D00009097D0D0A0D0A0909237363726F6C6C79
:1026E0002D746F2D746F702D62746E3A686F7665FD
:1026F00072207B0D0A090909636F6C6F723A2023FF
:102700003232323632393B0D0A090909626F72647E
:1027100065723A2031707820736F6C6964202332BF
:1027200032323632393B0D0A090909626F782D734E
:102730006861646F773A3020337078203070782089
:10274000233232323632393B0D0A0909096261639C
:102750006B67726F756E642D636F6C6F723A2023B6
:102760003631383932663B0D0A090909636F6C6FDF
:10277000723A20233232323632393B0D0A09097D52
:102780000D0A0D0A0909237363726F6C6C2D746F47
:102790002D746F702D62746E2E73686F77207B0DB1
:1027A0000A090909646973706C61793A20626C6F77
:1027B000636B3B0D0A09097D0D0A0D0A093C2F7355
:1027C00074796C653E0D0A093C7363726970743EDE
:1027D0000D0A09096C65742064617465203D206EE2
:1027E0006577204461746528293B0D0A09096C65E9
:1027F000742066696C654E616D653B0D0A09092F91
:102800002F20D0A1D0BED0B7D0B4D0B0D0B5D0BCDE
:1028100020D0BDD0BED0B2D18BD0B920D0BED0B1E7
:10282000D18AD0B5D0BAD18220D181D0B2D18FD0C7
:10283000B7D0B0D0BDD0BDD18BD18520D181D0BF94
:10284000D0B8D181D0BAD0BED0B20D0A0909766114
:10285000722073796E634C69737431203D206E650C
:10286000772073796E634C6973743B0D0A0909769E
:102870006172206E616D65203D2022D09CD0A32026
:10288000D0A1D0A3D096223B0D0A09096C65742013
:102890006964506572696F64696346756E633B0D68
:1028A0000A0D0A0909636F6E7374206F7074696F83
:1028B0006E73203D207B0D0A0909096D756C7469E2
:1028C000706C653A20747275652C0D0A09090973DC
:1028D00075676765737465644E616D653A2027534B
:1028E000555A27202B20273A27202B206461746516
:1028F0002E676574446174652829202B20272D27B5
:10290000202B20646174652E6765744D6F6E74684A
:102910002829202B20272D27202B20646174652E49
:1029200067657446756C6C5965617228292C0D0AAF
:1029300009090974797065733A205B0D0A09090960
:10294000097B0D0A090909090964657363726970D5
:1029500074696F6E3A202754657874272C0D0A0924
:10296000090909096163636570743A207B0D0A09DE
:10297000090909090927746578742F706C61696EFB
:10298000273A20272E747874270D0A0909090909A6
:102990007D0D0A090909097D0D0A0909095D2C0D3A
:1029A0000A0909096578636C75646541636365703C
:1029B00074416C6C4F7074696F6E3A2074727565F7
:1029C0000D0A09097D0D0A0D0A090966756E637401
:1029D000696F6E20746F42696E61727928737472C8
:1029E000696E6729207B0D0A090909636F6E73748C
:1029F00020636F6465556E697473203D206E657742
:102A00002055696E7431364172726179287374721F
:102A1000696E672E6C656E677468293B0D0A09093B
:102A200009666F7220286C65742069203D20303B58
:102A30002069203C20636F6465556E6974732E6C49
:102A4000656E6774683B20692B2B29207B0D0A0972
:102A5000090909636F6465556E6974735B695D206C
:102A60003D20737472696E672E63686172436F6490
:102A70006541742869293B0D0A0909097D0D0A0978
:102A80000909636F6E73742063686172436F6465D4
:102A900073203D206E65772055696E7438417272DF
:102AA000617928636F6465556E6974732E6275660B
:102AB000666572293B0D0A0909096C657420726507
:102AC00073756C74203D2027273B0D0A09090966A0
:102AD0006F7220286C65742069203D20303B20698E
:102AE000203C2063686172436F6465732E62797461
:102AF000654C656E6774683B20692B2B29207B0D24
:102B00000A09090909726573756C74202B3D2053FD
:102B10007472696E672E66726F6D43686172436F7F
:102B200064652863686172436F6465735B695D29DE
:102B30003B0D0A0909097D0D0A09090972657475B9
:102B4000726E20726573756C743B0D0A09097D0DF8
:102B50000A0D0A090966756E6374696F6E206672E4
:102B60006F6D42696E6172792862696E617279294E
:102B7000207B0D0A090909636F6E737420627974F2
:102B80006573203D206E65772055696E74384172FB
:102B90007261792862696E6172792E6C656E6774F4
:102BA00068293B0D0A090909666F7220286C657453
:102BB0002069203D20303B2069203C2062797465EB
:102BC000732E6C656E6774683B20692B2B29207B04
:102BD0000D0A0909090962797465735B695D203D15
:102BE0002062696E6172792E63686172436F6465F9
:102BF00041742869293B0D0A0909097D0D0A090953
:102C000009636F6E73742063686172436F646573E8
:102C1000203D206E65772055696E743136417272A1
:102C200061792862797465732E62756666657229AA
:102C30003B0D0A0909096C657420726573756C7423
:102C4000203D2027273B0D0A090909666F722028BD
:102C50006C65742069203D20303B2069203C206356
:102C6000686172436F6465732E6C656E6774683B50
:102C700020692B2B29207B0D0A090909097265732C
:102C8000756C74202B3D20537472696E672E6672CA
:102C90006F6D43686172436F646528636861724356
:102CA0006F6465735B695D293B0D0A0909097D0D38
:102CB0000A09090972657475726E20726573756C04
:102CC000743B0D0A09097D0D0A0909200D0A0D0A38
:102CD000090966756E6374696F6E20476574446197
:102CE000746146726F6D536572766572416E64559C
:102CF0007064617465416C6C4669656C6473282905
:102D0000207B0D0A090909786872203D206E6577DD
:102D10002028584D4C4874747052657175657374F1
:102D2000293B0D0A0909097868722E6F70656E28B3
:102D300022474554222C20226D61696E5F636F6EBD
:102D4000662E7368746D6C2F706172616D6574723C
:102D50006573222C2074727565293B0D0A090909D7
:102D60007868722E726573706F6E736554797065D2
:102D7000203D20226A736F6E223B0D0A09090978F3
:102D800068722E6F6E6C6F6164203D2066756E6395
:102D900074696F6E202829207B0D0A0D0A09090924
:102DA0000969662028287868722E726561647953F3
:102DB00074617465203D3D3D207868722E444F4E0D
:102DC000452920262620287868722E737461747530
:102DD00073203D3D3D203230302929207B0D0A09EA
:102DE000090909096C6574206A736F6E5265737006
:102DF0006F6E7365203D207868722E726573706FF8
:102E00006E73653B0D0A09090909096966286A7329
:102E10006F6E526573706F6E73652E52536F6E20B6
:102E20003C2037303030297B0D0A0909090909098E
:102E3000646F63756D656E742E676574456C656D42
:102E4000656E744279496428276461746152536FD6
:102E50006E27292E76616C7565203D206A736F6E32
:102E6000526573706F6E73652E52536F6E3B0D0A11
:102E700009090909097D656C736520646F63756DC7
:102E8000656E742E676574456C656D656E74427908
:102E9000496428276461746152536F6E27292E7626
:102EA000616C7565203D206A736F6E526573706F3B
:102EB0006E73652E52536F6E202B202220D09ED031
:102EC000B1D180D18BD0B22FD0BFD180D0B5D0B20C
:102ED000D18BD188D0B5D0BDD0B8D0B520D0BCD0A2
:102EE000B0D0BAD1812E20D181D0BED0BFD180D078
:102EF000BED182D0B8D0B2D0BBD0B5D0BDD0B8D1C1
:102F00008F223B0D0A0D0A0909090909646F6375CF
:102F10006D656E742E676574456C656D656E744283
:102F200079496428276461746152536F6666272962
:102F30002E76616C7565203D206A736F6E526573E5
:102F4000706F6E73652E52536F66663B0D0A0909EA
:102F5000090909646F63756D656E742E6765744544
:102F60006C656D656E74427949642827646174618B
:102F700044697370657273696F6E27292E76616C70
:102F80007565203D206A736F6E526573706F6E7346
:102F9000652E44697370657273696F6E2E746F4627
:102FA000697865642833293B0D0A09090909096410
:102FB0006F63756D656E742E676574456C656D65C0
:102FC0006E74427949642827646174615273746134
:102FD0007427292E76616C7565203D206A736F6EAB
:102FE000526573706F6E73652E52737461743B0D0E
:102FF0000A0909090909646F63756D656E742E67A6
:103000006574456C656D656E744279496428276402
:103010006174614669656C6427292E76616C7565FB
:10302000203D206A736F6E526573706F6E73652EEC
:103030004669656C643B0D0A0909090909646F63F7
:10304000756D656E742E676574456C656D656E741F
:103050004279496428276461746149776F726B27EC
:10306000292E76616C7565203D206A736F6E5265FE
:1030700073706F6E73652E49776F726B3B0D0A0923
:1030800009090909646F63756D656E742E6765744F
:10309000456C656D656E7442794964282764617476
:1030A000614672657127292E76616C7565203D2019
:1030B0006A736F6E526573706F6E73652E467265BC
:1030C000713B0D0A0909090909646F63756D656E25
:1030D000742E676574456C656D656E7442794964DC
:1030E00028276461746149636F696C27292E7661B2
:1030F0006C7565203D206A736F6E526573706F6EDC
:1031000073652E49636F696C3B0D0A09090909094A
:10311000646F63756D656E742E676574456C656D5F
:10312000656E744279496428276461746154696DDD
:103130006527292E76616C7565203D206A736F6E58
:10314000526573706F6E73652E54696D653B0D0A21
:103150000D0A0909090909646F63756D656E742E9E
:10316000676574456C656D656E744279496428279E
:103170006461746153746174757327292E76616C70
:103180007565203D206A736F6E526573706F6E7344
:10319000652E5374617475733B0D0A090909090999
:1031A000646F63756D656E742E676574456C656DCF
:1031B000656E7442794964282764617461436F6E57
:1031C0006E65637427292E76616C7565203D206AD3
:1031D000736F6E526573706F6E73652E436F6E6E94
:1031E0006563743B0D0A0D0A0909090909646F63D7
:1031F000756D656E742E676574456C656D656E746E
:103200004279496428276461746153554A5479703E
:103210006527292E76616C7565203D206A736F6E77
:10322000526573706F6E73652E53554A547970658D
:10323000203E2030203F2027D0A1D182D0BED18097
:10324000D0BED0BDD0BDD0B8D0B520D0BFD180D0F9
:10325000BED0B8D0B7D0B2D0BED0B4D0B8D182D062
:10326000B5D0BBD0B827203A2027D0A2D09ED09C82
:10327000D097D0ADD09B273B0D0A0D0A090909094B
:1032800009696620286A736F6E526573706F6E737A
:10329000652E53554A54797065203D3D3D203029B7
:1032A000207B0D0A090909090909646F63756D65B9
:1032B0006E742E676574456C656D656E74427949F0
:1032C00064282774725F52536F6E27292E737479A6
:1032D0006C652E646973706C6179203D20276E6F78
:1032E0006E65273B0D0A090909090909646F6375B1
:1032F0006D656E742E676574456C656D656E7442A0
:10330000794964282774725F4469737027292E7382
:1033100074796C652E646973706C6179203D202727
:103320006E6F6E65273B0D0A090909090909646F6B
:1033300063756D656E742E676574456C656D656E3D
:103340007442794964282774725F527374617427D8
:10335000292E7374796C652E646973706C617920A1
:103360003D2027273B0D0A09090909092F2A09646D
:103370006F63756D656E742E676574456C656D65FC
:103380006E74427949642827702D676572636F6E89
:1033900027292E7374796C652E646973706C61795A
:1033A000203D20276E6F6E65273B0D0A090909092C
:1033B0000909646F63756D656E742E676574456C7D
:1033C000656D656E74427949642827702D73626F4C
:1033D000726B6127292E7374796C652E6469737022
:1033E0006C6179203D2027273B2A2F0D0A09090906
:1033F00009097D0D0A0909090909656C7365207BB6
:103400000D0A090909090909646F63756D656E7410
:103410002E676574456C656D656E744279496428E4
:103420002774725F52536F6E27292E7374796C65FF
:103430002E646973706C6179203D2027273B0D0A4B
:10344000090909090909646F63756D656E742E6752
:103450006574456C656D656E74427949642827749E
:10346000725F4469737027292E7374796C652E64BA
:103470006973706C6179203D2027273B0D0A09098B
:1034800009090909646F63756D656E742E6765744B
:10349000456C656D656E7442794964282774725F66
:1034A000527374617427292E7374796C652E646964
:1034B00073706C6179203D20276E6F6E65273B0D20
:1034C0000A0909090909092F2A646F63756D656E78
:1034D000742E676574456C656D656E7442794964D8
:1034E0002827702D676572636F6E27292E73747994
:1034F0006C652E646973706C6179203D2027273BD1
:103500000D0A090909090909646F63756D656E740F
:103510002E676574456C656D656E744279496428E3
:1035200027702D73626F726B6127292E7374796C0B
:10353000652E646973706C6179203D20276E6F6E13
:1035400065273B2A2F0D0A09090909097D0D0A0D76
:103550000A0909090909646F63756D656E742E6740
:103560006574456C656D656E74427949642827649D
:1035700061746156657273696F6E27292E76616C6E
:103580007565203D206A736F6E526573706F6E7340
:10359000652E56657273696F6E3B0D0A0D0A090937
:1035A000090909646F63756D656E742E67657445EE
:1035B0006C656D656E74427949642827736F666C1B
:1035C0006F7727292E73656C6563746564496E6433
:1035D0006578203D206A736F6E526573706F6E73ED
:1035E000652E49776F726B203C203530203F2030AC
:1035F000203A206A736F6E526573706F6E73652E1A
:1036000049776F726B203D3D3D203530203F2031A2
:10361000203A20323B0D0A0909090909646F6375D4
:103620006D656E742E676574456C656D656E74426C
:103630007949642827736F666C6F773127292E7656
:10364000616C7565203D206A736F6E526573706F93
:103650006E73652E53554A547970653B0D0A0909FE
:10366000090909646F63756D656E742E676574452D
:103670006C656D656E74427949642827746573744E
:10368000496E707574496427292E76616C756520C2
:103690003D206A736F6E526573706F6E73652E4650
:1036A0007265713B0D0A0909090909646F63756D3B
:1036B000656E742E676574456C656D656E744279D0
:1036C00049642827437572724B61747573686B691E
:1036D00027292E76616C7565203D206A736F6E52C6
:1036E0006573706F6E73652E49636F696C3B0D0A6D
:1036F0000909090909646F63756D656E742E676544
:1037000074456C656D656E744279496428276D61F6
:1037100078527327292E76616C7565203D206A7377
:103720006F6E526573706F6E73652E4D6178527354
:103730003B0D0A0909090909646F63756D656E74AB
:103740002E676574456C656D656E744279496428B1
:10375000276D617844697370657273696F6E27298C
:103760002E76616C7565203D206A736F6E526573AD
:10377000706F6E73652E4D617844697370657274F5
:10378000696F6E3B0D0A0909090909646F63756D5C
:10379000656E742E676574456C656D656E744279EF
:1037A000496428276D6178487327292E76616C75E6
:1037B00065203D206A736F6E526573706F6E73651E
:1037C0002E4D617848733B0D0A0D0A090909090954
:1037D0002F2F20D0BAD180D0B0D181D0B8D0BC208A
:1037E000D0B2D18BD0B2D0BED0B420D0BFD180D097
:1037F000B820D182D0B5D181D182D0B0D1850D0A87
:10380000090909090969662028646F63756D656E89
:10381000742E676574456C656D656E744279496494
:1038200028276461746144697370657273696F6E8F
:1038300027292E76616C7565203E20646F63756D57
:10384000656E742E676574456C656D656E7442793E
:10385000496428276D617844697370657273696F74
:103860006E27292E76616C75652920646F63756DEE
:10387000656E742E676574456C656D656E7442790E
:10388000496428276461746144697370657273695F
:103890006F6E27292E7374796C652E636F6C6F724F
:1038A000203D2022726564223B0D0A09090909099D
:1038B000656C736520646F63756D656E742E6765E6
:1038C00074456C656D656E7442794964282764613E
:1038D000746144697370657273696F6E27292E7302
:1038E00074796C652E636F6C6F72203D2022677255
:1038F00065656E223B0D0A0D0A0909090909696609
:103900002028646F63756D656E742E676574456CF1
:10391000656D656E744279496428276461746146F7
:1039200069656C6427292E76616C7565203E20647C
:103930006F63756D656E742E676574456C656D6536
:103940006E744279496428276D6178487327292E5F
:1039500076616C75652920646F63756D656E742E74
:10396000676574456C656D656E7442794964282796
:10397000646174614669656C6427292E7374796C7F
:10398000652E636F6C6F72203D2022726564223B4E
:103990000D0A0909090909656C736520646F63756F
:1039A0006D656E742E676574456C656D656E7442E9
:1039B0007949642827646174614669656C642729C4
:1039C0002E7374796C652E636F6C6F72203D2022AC
:1039D000677265656E223B0D0A0D0A09090909091E
:1039E00069662028646F63756D656E742E676574F3
:1039F000456C656D656E744279496428276461740D
:103A00006152536F6E27292E76616C7565203E20BA
:103A1000646F63756D656E742E676574456C656D56
:103A2000656E744279496428276D6178527327293D
:103A30002E76616C75652920646F63756D656E7493
:103A40002E676574456C656D656E744279496428AE
:103A5000276461746152536F6E27292E7374796CD9
:103A6000652E636F6C6F72203D2022726564223B6D
:103A70000D0A0909090909656C736520646F63758E
:103A80006D656E742E676574456C656D656E744208
:103A9000794964282764617461446973706572733D
:103AA000696F6E27292E7374796C652E636F6C6F46
:103AB00072203D2022677265656E223B0D0A0D0A59
:103AC000090909090969662028646F63756D656EC7
:103AD000742E676574456C656D656E7442794964D2
:103AE000282764617461527374617427292E76618A
:103AF0006C7565203E20323530302920646F637547
:103B00006D656E742E676574456C656D656E744287
:103B10007949642827646174615273746174272938
:103B20002E7374796C652E636F6C6F72203D20224A
:103B3000726564223B0D0A0909090909656C736500
:103B400020646F63756D656E742E676574456C6572
:103B50006D656E744279496428276461746152739B
:103B600074617427292E7374796C652E636F6C6F82
:103B700072203D2022677265656E223B0D0A0D0A98
:103B800009090909092F2F636F6E736F6C652E6C1D
:103B90006F67286A736F6E526573706F6E73652EF0
:103BA00054696D65293B0D0A0909090909476574BE
:103BB0004461746146726F6D536572766572416ED1
:103BC000645570646174654D61696E4669656C64C5
:103BD00028293B0D0A090909097D0D0A0909097DF2
:103BE0000D0A0909097868722E73656E6428293BED
:103BF0000D0A09097D0D0A0D0A0909636F6E7374B8
:103C000020537461747573203D207B0D0A090909E6
:103C1000303A2022D093D0BED182D0BED0B220D0B4
:103C2000BA20D180D0B0D0B1D0BED182D0B5222CB4
:103C30000D0A090909313A2022D09FD0BED0B8D14F
:103C400081D0BA20D0BFD0BED0BFD0BBD0B0D0B210
:103C5000D0BAD0B0222C0D0A090909323A2022D05C
:103C60009FD0BED0B8D181D0BA20D0B3D0B5D1804A
:103C7000D0BAD0BED0BDD0BED0B2D0BED0B3D0BEF0
:103C800020D0BCD0BED0B4D183D0BBD18F222C0DDC
:103C90000A090909333A2022D09ED0BFD180D0B57D
:103CA000D0B4D0B5D0BBD0B5D0BDD0B8D0B520D170
:103CB00081D0BED0BFD180D0BED182D0B8D0B2D05A
:103CC000BBD0B5D0BDD0B8D18F20D0B3D0B5D180C6
:103CD000D0BAD0BED0BDD0BED0B2D0BED0B3D0BE90
:103CE00020D0BCD0BED0B4D183D0BBD18F222C0D7C
:103CF0000A090909343A2022D097D0B0D0BFD18325
:103D0000D189D0B5D0BD20D0BED0B4D0BDD0BED02A
:103D1000BAD180D0B0D182D0BDD0BE222C0D0A093C
:103D20000909353A2022D097D0B0D0BFD183D189AC
:103D3000D0B5D0BD20D186D0B8D0BAD0BBD0B8D104
:103D400087D0B5D181D0BAD0B8222C0D0A09090983
:103D5000363A2022D097D0B0D0BFD183D189D0B508
:103D6000D0BD20D0BFD0BED181D182D0BED18FD026
:103D7000BDD0BDD0BE222C0D0A090909373A202238
:103D8000D09FD0BED0B8D181D0BA20D0B3D0B5D1D9
:103D900080D0BAD0BED0BDD0B0222C0D0A090909FE
:103DA000383A2022D09ED0BFD180D0B5D0B4D0B583
:103DB000D0BBD0B5D0BDD0B8D0B520D181D0BED089
:103DC000BFD180D0BED182D0B8D0B2D0BBD0B5D018
:103DD000BDD0B8D18F20D0B3D0B5D180D0BAD0BEAD
:103DE000D0BDD0B0222C0D0A090909393A2022D0C1
:103DF0009ED0BFD180D0B5D0B4D0B5D0BBD0B5D0D7
:103E0000BDD0B8D0B520D0BCD0B0D0B3D0BDD0B824
:103E1000D182D0BDD0BED0B320D0BFD0BED0BBD118
:103E20008F20D0BFD0BED0BFD0BBD0B0D0B2D0BA20
:103E3000D0B0220D0A09097D0D0A0D0A090966751F
:103E40006E6374696F6E2053657453746174757317
:103E500028736574297B0D0A0D0A090909726574B6
:103E600075726E205374617475735B7365745D3B1A
:103E70000D0A09097D0D0A0D0A09096C6574206F88
:103E80006C645374617475733B0D0A09096C657435
:103E900020666C61675374617475733B0D0A0D0A7B
:103EA000096173796E632066756E6374696F6E2045
:103EB0004765744461746146726F6D5365727665CF
:103EC00072416E645570646174654D61696E4669D6
:103ED000656C642829207B0D0A20202020766172E1
:103EE00020786872203D206E657720584D4C4874CC
:103EF00074705265717565737428293B0D0A202012
:103F000020207868722E6F70656E282247455422F3
:103F10002C20226D61696E5F636F6E662E7368740C
:103F20006D6C2F706172616D6574726573222C20E7
:103F300074727565293B0D0A202020207868722E46
:103F4000726573706F6E736554797065203D2022C1
:103F50006A736F6E223B0D0A2020200D0A2020205C
:103F6000207868722E6F6E6C6F6164203D206675DC
:103F70006E6374696F6E202829207B0D0A20202033
:103F80002020202020696620287868722E726561C2
:103F900064795374617465203D3D3D20584D4C4813
:103FA000747470526571756573742E444F4E452953
:103FB000207B0D0A202020202020202020202020CF
:103FC000696620287868722E737461747573203D59
:103FD0003D3D2032303029207B0D0A20202020203A
:103FE0002020202020202020202020766172206A9E
:103FF000736F6E526573706F6E7365203D207868C5
:10400000722E726573706F6E73653B0D0A0D0A092F
:10401000090909696620286F6C64537461747573AB
:10402000203D3D3D2031202626206A736F6E52656B
:1040300073706F6E73652E537461747573203D3D9C
:104040003D2030290D0A09090909097B0D0A0909D2
:1040500009090909666C6167537461747573203DC1
:1040600020313B0D0A0909090909096F6C64537471
:1040700061747573203D206A736F6E526573706F43
:104080006E73652E5374617475733B0D0A090909CB
:1040900009097D0D0A0D0A0909090909696620281F
:1040A0006F6C6453746174757320213D206A736F63
:1040B0006E526573706F6E73652E53746174757391
:1040C000290D0A09090909097B0D0A0909090909C4
:1040D000096F6C64537461747573203D206A736F4B
:1040E0006E526573706F6E73652E53746174757361
:1040F0003B0D0A09090909097D0D0A0D0A0909097B
:1041000009096966286A736F6E526573706F6E7302
:10411000652E52536F6E203C2037303030297B0D96
:104120000A090909090909646F63756D656E742EC2
:10413000676574456C656D656E74427949642827BE
:104140006461746152536F6E27292E76616C7565B8
:10415000203D206A736F6E526573706F6E73652EAB
:1041600052536F6E3B0D0A09090909097D656C738D
:10417000652009646F63756D656E742E676574459F
:104180006C656D656E744279496428276461746159
:1041900052536F6E27292E76616C7565203D206A1B
:1041A000736F6E526573706F6E73652E52536F6EC0
:1041B000202B202220D09ED0B1D180D18BD0B22F05
:1041C000D0BFD180D0B5D0B2D18BD188D0B5D0BD41
:1041D000D0B8D0B520D0BCD0B0D0BAD1812E20D1AB
:1041E00081D0BED0BFD180D0BED182D0B8D0B2D025
:1041F000BBD0B5D0BDD0B8D18F223B0D0A0D0A0976
:1042000009090909646F63756D656E742E676574BD
:10421000456C656D656E74427949642827646174E4
:104220006152536F666627292E76616C7565203D55
:10423000206A736F6E526573706F6E73652E525382
:104240006F66663B0D0A0909090909646F63756D9C
:10425000656E742E676574456C656D656E74427924
:104260004964282764617461446973706572736975
:104270006F6E27292E76616C7565203D206A736FFD
:104280006E526573706F6E73652E446973706572DC
:1042900073696F6E2E746F46697865642833293BA5
:1042A0000D0A0909090909646F63756D656E742E3D
:1042B000676574456C656D656E744279496428273D
:1042C00064617461527374617427292E76616C7510
:1042D00065203D206A736F6E526573706F6E7365F3
:1042E0002E52737461743B0D0A0909090909646F40
:1042F00063756D656E742E676574456C656D656E6E
:1043000074427949642827646174614669656C6404
:1043100027292E76616C7565203D206A736F6E5279
:104320006573706F6E73652E4669656C643B0D0A2C
:104330000909090909646F63756D656E742E6765F7
:1043400074456C656D656E744279496428276461B3
:10435000746149776F726B27292E76616C756520C1
:104360003D206A736F6E526573706F6E73652E4970
:10437000776F726B3B0D0A0909090909646F637550
:104380006D656E742E676574456C656D656E7442FF
:104390007949642827646174614672657127292E02
:1043A00076616C7565203D206A736F6E526573701F
:1043B0006F6E73652E467265713B0D0A0909090916
:1043C00009646F63756D656E742E676574456C6501
:1043D0006D656E744279496428276461746149632C
:1043E0006F696C27292E76616C7565203D206A7394
:1043F0006F6E526573706F6E73652E49636F696C73
:104400003B0D0A0909090909646F63756D656E74CE
:104410002E676574456C656D656E744279496428D4
:10442000276461746154696D6527292E76616C7506
:1044300065203D206A736F6E526573706F6E736591
:104440002E54696D653B0D0A0909090909646F63FA
:10445000756D656E742E676574456C656D656E74FB
:104460004279496428276461746153554A547970CC
:104470006527292E76616C7565203D206A736F6E05
:10448000526573706F6E73652E53554A547970651B
:10449000203E2030203F2027D0A1D182D0BED18025
:1044A000D0BED0BDD0BDD0B8D0B520D0BFD180D087
:1044B000BED0B8D0B7D0B2D0BED0B4D0B8D182D0F0
:1044C000B5D0BBD0B827203A2027D0A2D09ED09C10
:1044D000D097D0ADD09B273B0D0A09090909096483
:1044E0006F63756D656E742E676574456C656D657B
:1044F0006E744279496428276461746156657273E9
:10450000696F6E27292E76616C7565203D206A7370
:104510006F6E526573706F6E73652E566572736938
:104520006F6E3B0D0A0D0A09090909092F2F20D0CA
:10453000BAD180D0B0D181D0B8D0BC20D0B2D18B8C
:10454000D0B2D0BED0B420D0BFD180D0B820D182DC
:10455000D0B5D181D182D0B0D1850D0A0909090920
:104560000969662028646F63756D656E742E6765D2
:1045700074456C656D656E74427949642827646181
:10458000746144697370657273696F6E27292E7642
:10459000616C7565203E20646F63756D656E742E69
:1045A000676574456C656D656E744279496428274A
:1045B0006D617844697370657273696F6E27292E17
:1045C00076616C75652920646F63756D656E742EF8
:1045D000676574456C656D656E744279496428271A
:1045E0006461746144697370657273696F6E2729C1
:1045F0002E7374796C652E636F6C6F72203D202270
:10460000726564223B0D0A0909090909656C736525
:1046100020646F63756D656E742E676574456C6597
:104620006D656E74427949642827646174614469D8
:104630007370657273696F6E27292E7374796C6558
:104640002E636F6C6F72203D2022677265656E224B
:104650003B0D0A0D0A090909090969662028646FDA
:1046600063756D656E742E676574456C656D656EFA
:1046700074427949642827646174614669656C6491
:1046800027292E76616C7565203E20646F63756DF9
:10469000656E742E676574456C656D656E744279E0
:1046A000496428276D6178487327292E76616C75D7
:1046B000652920646F63756D656E742E676574453A
:1046C0006C656D656E744279496428276461746114
:1046D0004669656C6427292E7374796C652E636F47
:1046E0006C6F72203D2022726564223B0D0A09091D
:1046F000090909656C736520646F63756D656E7477
:104700002E676574456C656D656E744279496428E1
:1047100027646174614669656C6427292E73747916
:104720006C652E636F6C6F72203D20226772656529
:104730006E223B0D0A0D0A0909090909696620283C
:10474000646F63756D656E742E676574456C656D19
:10475000656E744279496428276461746152536FAD
:104760006E27292E76616C7565203E20646F637517
:104770006D656E742E676574456C656D656E74420B
:1047800079496428276D6178527327292E76616CE8
:1047900075652920646F63756D656E742E67657429
:1047A000456C656D656E744279496428276461744F
:1047B0006152536F6E27292E7374796C652E636F67
:1047C0006C6F72203D2022726564223B0D0A09093C
:1047D000090909656C736520646F63756D656E7496
:1047E0002E676574456C656D656E74427949642801
:1047F000276461746144697370657273696F6E27B1
:10480000292E7374796C652E636F6C6F72203D2056
:1048100022677265656E223B0D0A0D0A09090909B6
:104820000969662028646F63756D656E742E67650F
:1048300074456C656D656E744279496428276461BE
:104840007461527374617427292E76616C756520CA
:104850003E20323530302920646F63756D656E748B
:104860002E676574456C656D656E74427949642880
:104870002764617461527374617427292E7374798B
:104880006C652E636F6C6F72203D2022726564220E
:104890003B0D0A0909090909656C736520646F639A
:1048A000756D656E742E676574456C656D656E74A7
:1048B0004279496428276461746152737461742772
:1048C000292E7374796C652E636F6C6F72203D2096
:1048D00022677265656E223B0D0A0D0A0D0A0909F1
:1048E000090969662028666C616753746174757381
:1048F000203D3D2031297B0D0A0909090909646F12
:1049000063756D656E742E676574456C656D656E57
:1049100074427949642827437572724B61747573C8
:10492000686B6927292E76616C7565203D206A7356
:104930006F6E526573706F6E73652E49636F696C2D
:104940003B0D0A0909090909666C616753746174B2
:104950007573203D20303B0D0A090909097D0D0AB8
:104960002020202020202020202020202020202047
:10497000646F63756D656E742E676574456C656DE7
:10498000656E744279496428276461746153746167
:1049900074757327292E76616C7565203D205365EB
:1049A00074537461747573286A736F6E5265737093
:1049B0006F6E73652E537461747573293B0D0A20F5
:1049C00020202020202020202020202020202064A3
:1049D0006F63756D656E742E676574456C656D6586
:1049E0006E7442794964282764617461436F6E6E06
:1049F00065637427292E76616C7565203D2022D071
:104A0000A1D0B2D18FD0B7D18C20D0B5D181D182F5
:104A1000D18C223B202F2F20D0A3D181D182D0B0A6
:104A2000D0BDD0B0D0B2D0BBD0B8D0B2D0B0D0B55D
:104A3000D0BC20D0B7D0BDD0B0D187D0B5D0BDD0FC
:104A4000B8D0B520D181D0B2D18FD0B7D0B80D0AAF
:104A50002020202020202020202020207D20656C68
:104A60007365207B0D0A202020202020202020207C
:104A7000202020202020646F63756D656E742E6782
:104A80006574456C656D656E744279496428276468
:104A9000617461436F6E6E65637427292E76616C55
:104AA0007565203D2022D0A1D0B2D18FD0B7D0B82B
:104AB00020D0BDD0B5D182223B202F2F20D0A3D132
:104AC00081D182D0B0D0BDD0B0D0B2D0BBD0B8D020
:104AD000B2D0B0D0B5D0BC20D0B7D0BDD0B0D18787
:104AE000D0B5D0BDD0B8D0B520D181D0B2D18FD083
:104AF000B7D0B80D0A202020202020202020202000
:104B0000207D0D0A20202020202020207D0D0A203D
:104B10002020207D3B0D0A202020207868722E6FF7
:104B20006E6572726F72203D2066756E6374696F78
:104B30006E2829207B0D0A202020202020202064A0
:104B40006F63756D656E742E676574456C656D6514
:104B50006E7442794964282764617461436F6E6E94
:104B600065637427292E76616C7565203D2022D0FF
:104B7000A1D0B2D18FD0B7D0B820D0BDD0B5D1821E
:104B8000223B202F2F20D0A3D181D182D0B0D0BD05
:104B9000D0B0D0B2D0BBD0B8D0B2D0B0D0B5D0BCED
:104BA00020D0B7D0BDD0B0D187D0B5D0BDD0B8D08F
:104BB000B520D181D0B2D18FD0B7D0B80D0A202086
:104BC00020207D3B0D0A090D0A0D0A2020202078A7
:104BD00068722E73656E6428293B0D0A0D0A202029
:104BE0002020766172206964506572696F64696320
:104BF00046756E63203D2073657454696D656F75ED
:104C000074284765744461746146726F6D536572B0
:104C1000766572416E645570646174654D61696E4C
:104C20004669656C642C20393030293B0D0A7D0DB6
:104C30000A0D0A0D0A090966756E6374696F6E20A4
:104C4000637265617465426C6F6228646174612986
:104C5000207B0D0A09090972657475726E206E65F4
:104C60007720426C6F62285B646174615D2C207BED
:104C700020747970653A2022746578742F706C61A5
:104C8000696E22207D293B0D0A09097D0D0A0D0A56
:104C900009096173796E632066756E6374696F6E5E
:104CA00020627574746F6E536176652829207B0DC0
:104CB0000A0D0A090909636F6E737420666F726DBD
:104CC000203D20646F63756D656E742E6765744555
:104CD0006C656D656E7442794964282777726974D2
:104CE000655F626F7264657227293B0D0A090909C5
:104CF000666F726D2E6164644576656E744C69737F
:104D000074656E657228277375626D6974272C202F
:104D100066756E6374696F6E20286576656E74299A
:104D2000207B0D0A09090909636F6E73742072658F
:104D30007175697265644669656C6473203D2066AF
:104D40006F726D2E717565727953656C6563746FE2
:104D500072416C6C28275B72657175697265645D60
:104D600027293B0D0A090909096C657420697356E6
:104D7000616C6964203D20747275653B0D0A0909F8
:104D80000909666F7220286C65742069203D203007
:104D90003B2069203C2072657175697265644669C3
:104DA000656C64732E6C656E6774683B20692B2B91
:104DB00029207B0D0A090909090969662028217241
:104DC000657175697265644669656C64735B695D7C
:104DD0002E76616C756529207B0D0A090909090980
:104DE00009697356616C6964203D2066616C736566
:104DF0003B0D0A090909090909627265616B3B0DDE
:104E00000A09090909097D0D0A090909097D0D0A1F
:104E1000090909096966202821697356616C69646A
:104E200029207B0D0A09090909096576656E742E2A
:104E300070726576656E7444656661756C74282958
:104E40003B0D0A090909097D0D0A09090909656C63
:104E50007365207B0D0A09090909096C6574206FC7
:104E6000626A53656C4F7374203D20646F63756D87
:104E7000656E742E676574456C656D656E744279F8
:104E8000496428224C6973744F737422293B0D0ABC
:104E900009090909096C6574206F626A53656C4ED3
:104EA0007073203D20646F63756D656E742E676549
:104EB00074456C656D656E744279496428224C694D
:104EC00073744E707322293B0D0A09090909096C94
:104ED0006574206F626A4461746153757A547970A5
:104EE00065203D20646F63756D656E742E67657413
:104EF000456C656D656E7442794964282253555A34
:104F00005479706522293B0D0A09090909096C6564
:104F100074206F626A4461746153757A4E756D20B6
:104F20003D20646F63756D656E742E676574456CA6
:104F3000656D656E7442794964282253555A5F6ED7
:104F4000756D22293B0D0A09090909096C65742050
:104F50006F626A53656C4765726B6F6E4E756D203C
:104F60003D20646F63756D656E742E676574456C66
:104F7000656D656E744279496428224C6973744783
:104F800065726B6F6E4E756D22293B0D0A0909091A
:104F900009096C6574206F626A53656C546573749B
:104FA0004E756D203D20646F63756D656E742E6760
:104FB0006574456C656D656E744279496428224C50
:104FC000697374546573744E756D22293B0D0A091B
:104FD000090909096C6574206F626A446174615340
:104FE000757A476F64203D20646F63756D656E74DC
:104FF0002E676574456C656D656E744279496428E9
:105000002253555A5F676F6422293B0D0A0D0A0926
:105010000909090973657373696F6E53746F72615F
:1050200067652E7365744974656D28224C697374C5
:105030004F737454657874222C206F626A53656CC8
:105040004F73742E73656C6563746564496E646533
:1050500078293B0D0A090909090973657373696F9A
:105060006E53746F726167652E7365744974656DF4
:1050700028224C6973744E707354657874222C2006
:105080006F626A53656C4E70732E73656C656374E2
:105090006564496E646578293B0D0A0909090909A7
:1050A00073657373696F6E53746F726167652E7386
:1050B00065744974656D28225465787453757A5403
:1050C000797065222C206F626A4461746153757A2D
:1050D000547970652E76616C7565293B0D0A090956
:1050E00009090973657373696F6E53746F72616731
:1050F000652E7365744974656D2822546578745300
:10510000757A4E756D222C206F626A44617461530A
:10511000757A4E756D2E76616C7565293B0D0A09A1
:105120000909090973657373696F6E53746F72614E
:1051300067652E7365744974656D28224C697374B4
:105140004765726B6F6E4E756D54657874222C20B6
:105150006F626A53656C4765726B6F6E4E756D2E2C
:1051600073656C6563746564496E646578293B0D8D
:105170000A090909090973657373696F6E53746FBE
:10518000726167652E7365744974656D28224C6978
:105190007374546573744E756D54657874222C2045
:1051A0006F626A53656C546573744E756D2E7365CA
:1051B0006C6563746564496E646578293B0D0A0902
:1051C0000909090973657373696F6E53746F7261AE
:1051D00067652E7365744974656D2822546578740B
:1051E00053757A476F64222C206F626A4461746140
:1051F00053757A476F642E76616C7565293B0D0A8D
:105200000D0A0909090909636F6E737420446174FA
:105210006153757A4E756D203D2027D0A1D0A3D063
:105220009620E284962027202B206F626A446174C6
:105230006153757A4E756D2E76616C75653B0D0AFE
:105240000909090909636F6E73742053656C47651A
:10525000726B6F6E4E756D203D202720D093D0B5B8
:10526000D180D0BAD0BED0BD20E284963A2027208B
:105270002B20286F626A53656C4765726B6F6E4EA8
:10528000756D2E73656C6563746564496E646578CD
:10529000202B2031293B0D0A0909090909636F6E8A
:1052A00073742053656C546573744E756D203D2086
:1052B0002720D0A2D0B5D181D18220E284963A2095
:1052C00027202B20286F626A53656C546573744ED7
:1052D000756D2E73656C6563746564496E6465787D
:1052E000202B2031293B0D0A0909090909636F6E3A
:1052F0007374204461746153757A476F64203D2054
:105300002720D093D0BED0B420D0B8D0B7D0B3D05F
:10531000BED182D0BED0B2D0BBD0B5D0BDD0B8D176
:105320008F3A2027202B206F626A44617461537585
:105330007A476F642E76616C75653B0D0A09090921
:105340000909636F6E73742053656C4F7374203D4D
:10535000202720D09ED0A1D0A23A2027202B206F3A
:10536000626A53656C4F73742E6F7074696F6E73DD
:105370005B6F626A53656C4F73742E73656C656303
:10538000746564496E6465785D2E746578743B0D50
:105390000A0909090909636F6E73742053656C4E1D
:1053A0007073203D202720D09ED0A2D09F3A202786
:1053B000202B206F626A53656C4E70732E6F707471
:1053C000696F6E735B6F626A53656C4E70732E7398
:1053D000656C6563746564496E6465785D2E74659B
:1053E00078743B0D0A0909090909636F6E7374200B
:1053F0004461746153757A54797065203D2027208B
:10540000D0A2D098D09F20D0A1D0A3D0963A202768
:10541000202B206F626A4461746153757A547970ED
:10542000652E76616C75653B0D0A0D0A090909093F
:1054300009636F6E737420646174654E6F77203DED
:10544000206E6577204461746528293B0D0A09099F
:10545000090909636F6E737420666F726D617474ED
:10546000656444617465203D2060247B64617465DB
:105470004E6F772E6765744461746528297D2D24ED
:105480007B646174654E6F772E6765744D6F6E74C3
:10549000682829202B20317D2D247B646174654E82
:1054A0006F772E67657446756C6C59656172282933
:1054B0007D2D247B646174654E6F772E676574481B
:1054C0006F75727328297D2D247B646174654E6F1E
:1054D000772E6765744D696E7574657328297D60D4
:1054E0003B0D0A0909090909636F6E7374206F7017
:1054F00074696F6E73203D207B0D0A090909090943
:10550000097375676765737465644E616D653A20EC
:1055100060247B4461746153757A4E756D7D247B84
:1055200053656C4765726B6F6E4E756D7D247B5352
:10553000656C546573744E756D7D20D094D0B0D178
:1055400082D0B03A20247B666F726D61747465649A
:10555000446174657D602C0D0A09090909097D3BC8
:105560000D0A0909090909636F6E73742052656198
:10557000647954657874203D205B0D0A0909090996
:10558000090960D0A1D182D0B0D182D0B8D187D062
:10559000B5D181D0BAD0BED0B520D181D0BED0BFD8
:1055A000D180D0BED182D0B8D0B2D0BBD0B5D0BD22
:1055B000D0B8D0B520D0B7D0B0D0BCD0BAD0BDD143
:1055C00083D182D18BD18520D0BAD0BED0BDD1823B
:1055D000D0B0D0BAD182D0BED0B220D0B3D0B5D165
:1055E00080D0BAD0BED0BDD0B02C20D0BCD09ED000
:1055F000BC3A20247B646F63756D656E742E67659D
:1056000074456C656D656E744279496428276461E0
:10561000746152536F6E27292E76616C75657D60BB
:105620002C0D0A09090909090960D0A1D182D0B05D
:10563000D182D0B8D187D0B5D181D0BAD0BED0B5C3
:1056400020D181D0BED0BFD180D0BED182D0B8D041
:10565000B2D0BBD0B5D0BDD0B8D0B520D180D0B0FD
:10566000D0B7D0BED0BCD0BAD0BDD183D182D18B7F
:10567000D18520D0BAD0BED0BDD182D0B0D0BAD1E1
:1056800082D0BED0B220D0B3D0B5D180D0BAD0BEF7
:10569000D0BDD0B02C20D0BCD09ED0BC3A20247B32
:1056A000646F63756D656E742E676574456C656DAA
:1056B000656E744279496428276461746152536F3E
:1056C000666627292E76616C75657D602C0D0A094A
:1056D000090909090960D094D0B8D181D0BFD0B5EB
:1056E000D180D181D0B8D18F20D181D0BED0BFD1CF
:1056F00080D0BED182D0B8D0B2D0BBD0B5D0BDD0D2
:10570000B8D0B520D0BAD0BED0BDD182D0B0D0BA3A
:10571000D182D0BED0B220D0B3D0B5D180D0BAD053
:10572000BED0BDD0B02C20D0BCD09ED0BC3A20245E
:105730007B646F63756D656E742E676574456C650B
:105740006D656E74427949642827646174614469A7
:105750007370657273696F6E27292E76616C75653B
:105760007D602C0D0A09090909090960D0A1D182BF
:10577000D0B0D182D0B8D187D0B5D181D0BAD0BE87
:10578000D0B520D181D0BED0BFD180D0BED182D003
:10579000B8D0B2D0BBD0B5D0BDD0B8D0B520D0B382
:1057A000D0B5D180D0BAD0BED0BDD0BED0B2D0BEE0
:1057B000D0B3D0BE20D0BCD0BED0B4D183D0BBD16A
:1057C0008F2C20D09ED0BC3A20247B646F63756DF3
:1057D000656E742E676574456C656D656E7442798F
:1057E0004964282764617461527374617427292E97
:1057F00076616C75657D602C0D0A09090909090936
:1058000060D09CD0B0D0B3D0BDD0B8D182D0BDD004
:10581000BED0B520D0BFD0BED0BBD0B52C20D0BC20
:10582000D0BAD0A2D0BB3A20247B646F63756D657B
:105830006E742E676574456C656D656E744279494A
:10584000642827646174614669656C6427292E7633
:10585000616C75657D602C0D0A09090909090960EB
:10586000D0A2D0BED0BA20D0BED0BFD180D0BED1C1
:1058700081D0B02C20D0BCD0903A20247B646F63C0
:10588000756D656E742E676574456C656D656E74B7
:105890004279496428276461746149776F726B2784
:1058A000292E76616C75657D602C0D0A0909090940
:1058B000090960D0A7D0B0D181D182D0BED182D029
:1058C000B020D181D0BBD0B5D0B4D0BED0B2D0B092
:1058D000D0BDD0B8D18F20D182D0B5D181D182D0E6
:1058E000BED0B2D18BD18520D0B8D0BCD0BFD183AF
:1058F000D0BBD18CD181D0BED0B22C20D093D18658
:105900003A20247B646F63756D656E742E676574D1
:10591000456C656D656E74427949642827646174CD
:10592000614672657127292E76616C75657D602CE4
:105930000D0A09090909090960D0A2D0BED0BA2010
:10594000D0BAD0B0D182D183D188D0BAD0B82C20EF
:10595000D0BCD0BAD0903A20247B646F63756D655B
:105960006E742E676574456C656D656E7442794919
:105970006428276461746149636F696C27292E76F6
:10598000616C75657D602C0D0A09090909090960BA
:10599000D092D180D0B5D0BCD18F20D0BFD0B5D1DE
:1059A00080D0B5D185D0BED0B4D0BDD0BED0B3D01C
:1059B000BE20D0BFD180D0BED186D0B5D181D1811B
:1059C000D0B02C20D0BCD0BAD1813A20247B646FD7
:1059D00063756D656E742E676574456C656D656E77
:1059E000744279496428276461746154696D65273C
:1059F000292E76616C75657D602C0D0A09090909EF
:105A0000090960D0A2D0B8D0BF20D0A1D0A3D09631
:105A10003A20247B646F63756D656E742E676574C0
:105A2000456C656D656E74427949642827646174BC
:105A30006153554A5479706527292E76616C7565D6
:105A40007D602C0D0A09090909090960D092D0B5B9
:105A5000D180D181D0B8D18F20D0BFD180D0BED05D
:105A6000B3D180D0B0D0BCD0BCD0BDD0BED0B3D02C
:105A7000BE20D0BED0B1D0B5D181D0BFD0B5D187F6
:105A8000D0B5D0BDD0B8D18F3A20247B646F637578
:105A90006D656E742E676574456C656D656E7442D8
:105AA00079496428276461746156657273696F6E01
:105AB00027292E76616C75657D600D0A0909090933
:105AC000095D2E6A6F696E28275C6E27293B0D0AD7
:105AD0000D0A0909090909636F6E737420696E6EF6
